{
  "contractName": "BattleShip",
  "abi": [
    {
      "inputs": [],
      "stateMutability": "nonpayable",
      "type": "constructor"
    },
    {
      "anonymous": false,
      "inputs": [
        {
          "indexed": false,
          "internalType": "uint256",
          "name": "gameId",
          "type": "uint256"
        },
        {
          "indexed": false,
          "internalType": "uint256",
          "name": "eths",
          "type": "uint256"
        }
      ],
      "name": "ChangeDeposit",
      "type": "event"
    },
    {
      "anonymous": false,
      "inputs": [
        {
          "indexed": false,
          "internalType": "uint256",
          "name": "gameId",
          "type": "uint256"
        },
        {
          "indexed": false,
          "internalType": "bool",
          "name": "result",
          "type": "bool"
        },
        {
          "indexed": false,
          "internalType": "address",
          "name": "cheater",
          "type": "address"
        }
      ],
      "name": "Cheater",
      "type": "event"
    },
    {
      "anonymous": false,
      "inputs": [
        {
          "indexed": false,
          "internalType": "uint256",
          "name": "gameId",
          "type": "uint256"
        },
        {
          "indexed": false,
          "internalType": "address",
          "name": "winner",
          "type": "address"
        }
      ],
      "name": "EndGame",
      "type": "event"
    },
    {
      "anonymous": false,
      "inputs": [
        {
          "indexed": false,
          "internalType": "uint256",
          "name": "gameId",
          "type": "uint256"
        }
      ],
      "name": "NewGame",
      "type": "event"
    },
    {
      "anonymous": false,
      "inputs": [
        {
          "indexed": false,
          "internalType": "uint256",
          "name": "gameId",
          "type": "uint256"
        },
        {
          "indexed": false,
          "internalType": "bool",
          "name": "availability",
          "type": "bool"
        }
      ],
      "name": "PaidDeposit",
      "type": "event"
    },
    {
      "anonymous": false,
      "inputs": [
        {
          "indexed": false,
          "internalType": "uint256",
          "name": "gameId",
          "type": "uint256"
        },
        {
          "indexed": false,
          "internalType": "uint256",
          "name": "actual_amount",
          "type": "uint256"
        },
        {
          "indexed": false,
          "internalType": "uint256",
          "name": "new_amount",
          "type": "uint256"
        }
      ],
      "name": "ProposedDeposit",
      "type": "event"
    },
    {
      "anonymous": false,
      "inputs": [
        {
          "indexed": false,
          "internalType": "uint256",
          "name": "gameId",
          "type": "uint256"
        },
        {
          "indexed": false,
          "internalType": "address",
          "name": "creator",
          "type": "address"
        },
        {
          "indexed": false,
          "internalType": "address",
          "name": "player",
          "type": "address"
        },
        {
          "indexed": false,
          "internalType": "uint8",
          "name": "counter_ships_creator",
          "type": "uint8"
        },
        {
          "indexed": false,
          "internalType": "uint8",
          "name": "counter_ships_player",
          "type": "uint8"
        },
        {
          "indexed": false,
          "internalType": "uint8",
          "name": "board",
          "type": "uint8"
        },
        {
          "indexed": false,
          "internalType": "uint256",
          "name": "deposit",
          "type": "uint256"
        }
      ],
      "name": "SelectGame",
      "type": "event"
    },
    {
      "anonymous": false,
      "inputs": [
        {
          "indexed": false,
          "internalType": "uint256",
          "name": "gameId",
          "type": "uint256"
        },
        {
          "indexed": false,
          "internalType": "bool",
          "name": "result",
          "type": "bool"
        },
        {
          "indexed": false,
          "internalType": "uint8",
          "name": "counter_ships",
          "type": "uint8"
        },
        {
          "indexed": false,
          "internalType": "address",
          "name": "target_address",
          "type": "address"
        }
      ],
      "name": "ShotResult",
      "type": "event"
    },
    {
      "anonymous": false,
      "inputs": [
        {
          "indexed": false,
          "internalType": "uint256",
          "name": "gameId",
          "type": "uint256"
        },
        {
          "indexed": false,
          "internalType": "address",
          "name": "target",
          "type": "address"
        },
        {
          "indexed": false,
          "internalType": "uint8",
          "name": "col",
          "type": "uint8"
        },
        {
          "indexed": false,
          "internalType": "uint8",
          "name": "row",
          "type": "uint8"
        }
      ],
      "name": "ShotTorpedo",
      "type": "event"
    },
    {
      "anonymous": false,
      "inputs": [
        {
          "indexed": false,
          "internalType": "uint256",
          "name": "gameId",
          "type": "uint256"
        },
        {
          "indexed": false,
          "internalType": "address",
          "name": "accused",
          "type": "address"
        },
        {
          "indexed": false,
          "internalType": "uint256",
          "name": "time",
          "type": "uint256"
        }
      ],
      "name": "SubmitAccuse",
      "type": "event"
    },
    {
      "inputs": [
        {
          "internalType": "uint256",
          "name": "gameId",
          "type": "uint256"
        }
      ],
      "name": "changeDeposit",
      "outputs": [],
      "stateMutability": "payable",
      "type": "function",
      "payable": true
    },
    {
      "inputs": [
        {
          "internalType": "uint256",
          "name": "gameId",
          "type": "uint256"
        },
        {
          "internalType": "uint256",
          "name": "new_deposit",
          "type": "uint256"
        }
      ],
      "name": "proposeDeposit",
      "outputs": [],
      "stateMutability": "nonpayable",
      "type": "function"
    },
    {
      "inputs": [
        {
          "internalType": "uint256",
          "name": "gameId",
          "type": "uint256"
        }
      ],
      "name": "payDeposit",
      "outputs": [],
      "stateMutability": "payable",
      "type": "function",
      "payable": true
    },
    {
      "inputs": [
        {
          "internalType": "uint256",
          "name": "gameId",
          "type": "uint256"
        }
      ],
      "name": "deleteGame",
      "outputs": [],
      "stateMutability": "nonpayable",
      "type": "function"
    },
    {
      "inputs": [
        {
          "internalType": "uint8",
          "name": "board",
          "type": "uint8"
        },
        {
          "internalType": "uint256",
          "name": "deposit",
          "type": "uint256"
        }
      ],
      "name": "createGame",
      "outputs": [],
      "stateMutability": "payable",
      "type": "function",
      "payable": true
    },
    {
      "inputs": [],
      "name": "joinGameRandom",
      "outputs": [],
      "stateMutability": "nonpayable",
      "type": "function"
    },
    {
      "inputs": [
        {
          "internalType": "uint256",
          "name": "gameId",
          "type": "uint256"
        }
      ],
      "name": "joinGameId",
      "outputs": [],
      "stateMutability": "nonpayable",
      "type": "function"
    },
    {
      "inputs": [
        {
          "internalType": "bytes32",
          "name": "merkle_root",
          "type": "bytes32"
        },
        {
          "internalType": "uint256",
          "name": "gameId",
          "type": "uint256"
        }
      ],
      "name": "submitMerkleRoot",
      "outputs": [],
      "stateMutability": "nonpayable",
      "type": "function"
    },
    {
      "inputs": [
        {
          "internalType": "uint256",
          "name": "gameId",
          "type": "uint256"
        },
        {
          "internalType": "uint8",
          "name": "col",
          "type": "uint8"
        },
        {
          "internalType": "uint8",
          "name": "row",
          "type": "uint8"
        }
      ],
      "name": "shotTorpedo",
      "outputs": [],
      "stateMutability": "nonpayable",
      "type": "function"
    },
    {
      "inputs": [
        {
          "internalType": "uint256",
          "name": "gameId",
          "type": "uint256"
        },
        {
          "internalType": "bool",
          "name": "result",
          "type": "bool"
        },
        {
          "internalType": "bytes32",
          "name": "leaf",
          "type": "bytes32"
        },
        {
          "internalType": "bytes32[]",
          "name": "merkle_proof",
          "type": "bytes32[]"
        }
      ],
      "name": "shotResult",
      "outputs": [],
      "stateMutability": "payable",
      "type": "function",
      "payable": true
    },
    {
      "inputs": [
        {
          "internalType": "uint256",
          "name": "gameId",
          "type": "uint256"
        }
      ],
      "name": "submitAccuse",
      "outputs": [],
      "stateMutability": "nonpayable",
      "type": "function"
    },
    {
      "inputs": [
        {
          "internalType": "uint256",
          "name": "gameId",
          "type": "uint256"
        }
      ],
      "name": "verifyAccuse",
      "outputs": [
        {
          "internalType": "bool",
          "name": "",
          "type": "bool"
        }
      ],
      "stateMutability": "payable",
      "type": "function",
      "payable": true
    }
  ],
  "bytecode": "0x608060405234801561001057600080fd5b50613d53806100206000396000f3fe6080604052600436106100a75760003560e01c80633080bfc1116100645780633080bfc11461018f57806344f1c6b5146101b85780634c77d81c146101cf5780636a7ce02c146101f8578063a14b5b7514610214578063c2a2ce061461023d576100a7565b80630153f922146100ac578063042bb7d7146100dc5780631ec5a5ef146101055780632085ade614610121578063248a55a11461014a57806328cd3f1814610173575b600080fd5b6100c660048036038101906100c19190612bc4565b610259565b6040516100d39190612c0c565b60405180910390f35b3480156100e857600080fd5b5061010360048036038101906100fe9190612c27565b610519565b005b61011f600480360381019061011a9190612e22565b61073e565b005b34801561012d57600080fd5b5061014860048036038101906101439190612ede565b6111d9565b005b34801561015657600080fd5b50610171600480360381019061016c9190612bc4565b611404565b005b61018d60048036038101906101889190612bc4565b6116a7565b005b34801561019b57600080fd5b506101b660048036038101906101b19190612bc4565b6118b9565b005b3480156101c457600080fd5b506101cd611c93565b005b3480156101db57600080fd5b506101f660048036038101906101f19190612f31565b611ec8565b005b610212600480360381019061020d9190612f71565b61212a565b005b34801561022057600080fd5b5061023b60048036038101906102369190612bc4565b612630565b005b61025760048036038101906102529190612bc4565b61288c565b005b60006002600083815260200190815260200160002060009054906101000a900460ff166102bb576040517f08c379a00000000000000000000000000000000000000000000000000000000081526004016102b29061300e565b60405180910390fd5b600073ffffffffffffffffffffffffffffffffffffffff1660008084815260200190815260200160002060080160009054906101000a900473ffffffffffffffffffffffffffffffffffffffff1673ffffffffffffffffffffffffffffffffffffffff160361035f576040517f08c379a00000000000000000000000000000000000000000000000000000000081526004016103569061307a565b60405180910390fd5b6000808084815260200190815260200160002060010160009054906101000a900473ffffffffffffffffffffffffffffffffffffffff1673ffffffffffffffffffffffffffffffffffffffff163373ffffffffffffffffffffffffffffffffffffffff1614158015610432575060008084815260200190815260200160002060020160009054906101000a900473ffffffffffffffffffffffffffffffffffffffff1673ffffffffffffffffffffffffffffffffffffffff163373ffffffffffffffffffffffffffffffffffffffff1614155b15610472576040517f08c379a00000000000000000000000000000000000000000000000000000000081526004016104699061310c565b60405180910390fd5b4360008085815260200190815260200160002060090154116105105760008060008581526020019081526020016000206006015490506000806000868152602001908152602001600020600601819055503373ffffffffffffffffffffffffffffffffffffffff166108fc829081150290604051600060405180830381858888f19350505050158015610509573d6000803e3d6000fd5b5060019150505b80915050919050565b6002600083815260200190815260200160002060009054906101000a900460ff16610579576040517f08c379a00000000000000000000000000000000000000000000000000000000081526004016105709061300e565b60405180910390fd5b600081116105bc576040517f08c379a00000000000000000000000000000000000000000000000000000000081526004016105b39061319e565b60405180910390fd5b600080838152602001908152602001600020600601548103610613576040517f08c379a000000000000000000000000000000000000000000000000000000000815260040161060a90613230565b60405180910390fd5b60008083815260200190815260200160002060020160009054906101000a900473ffffffffffffffffffffffffffffffffffffffff1673ffffffffffffffffffffffffffffffffffffffff163373ffffffffffffffffffffffffffffffffffffffff160361069a5780600080848152602001908152602001600020600701819055506106d5565b6040517f08c379a00000000000000000000000000000000000000000000000000000000081526004016106cc906132c2565b60405180910390fd5b7fd1718a5135d7ca615659bc25295dc0f9ece0a61fb97444b39c59948a555bdda0826000808581526020019081526020016000206006015460008086815260200190815260200160002060070154604051610732939291906132f1565b60405180910390a15050565b6002600085815260200190815260200160002060009054906101000a900460ff1661079e576040517f08c379a00000000000000000000000000000000000000000000000000000000081526004016107959061300e565b60405180910390fd5b600082905060008060008088815260200190815260200160002060010160009054906101000a900473ffffffffffffffffffffffffffffffffffffffff1673ffffffffffffffffffffffffffffffffffffffff163373ffffffffffffffffffffffffffffffffffffffff1603610c9d5760008088815260200190815260200160002060020160009054906101000a900473ffffffffffffffffffffffffffffffffffffffff16915060005b84518110156109165784818151811061086557610864613328565b5b602002602001015186116108bd578385828151811061088757610886613328565b5b60200260200101516040516020016108a0929190613378565b604051602081830303815290604052805190602001209350610903565b8481815181106108d0576108cf613328565b5b6020026020010151846040516020016108ea929190613378565b6040516020818303038152906040528051906020012093505b808061090e906133d3565b915050610849565b506000808881526020019081526020016000206003015483036109e857851561098457600160008089815260200190815260200160002060020160148282829054906101000a900460ff1661096b919061341b565b92506101000a81548160ff021916908360ff1602179055505b7f855f1073f65329e50d915d9230e603d17a089a31ae0d1086791d8da67deb2fdd87876000808b815260200190815260200160002060020160149054906101000a900460ff16856040516109db949392919061349f565b60405180910390a1610ae2565b3390507f55030dddf9a469d8f111f37e767d2f68919b9bbeb24f1cbb870022d336b76e39878783604051610a1e939291906134e4565b60405180910390a1600080600089815260200190815260200160002060060154905060008060008a81526020019081526020016000206006018190555060008089815260200190815260200160002060020160009054906101000a900473ffffffffffffffffffffffffffffffffffffffff1673ffffffffffffffffffffffffffffffffffffffff166108fc829081150290604051600060405180830381858888f19350505050158015610ad6573d6000803e3d6000fd5b50610ae088611404565b505b600080600089815260200190815260200160002060020160149054906101000a900460ff1660ff1603610c9857600080600089815260200190815260200160002060060154905060008060008a81526020019081526020016000206006018190555060008089815260200190815260200160002060010160009054906101000a900473ffffffffffffffffffffffffffffffffffffffff1673ffffffffffffffffffffffffffffffffffffffff166108fc600283610ba0919061354a565b9081150290604051600060405180830381858888f19350505050158015610bcb573d6000803e3d6000fd5b5060008089815260200190815260200160002060020160009054906101000a900473ffffffffffffffffffffffffffffffffffffffff1673ffffffffffffffffffffffffffffffffffffffff166108fc600283610c28919061354a565b9081150290604051600060405180830381858888f19350505050158015610c53573d6000803e3d6000fd5b507f84f8e1147ed860fdcb13c73d1ec1bf4aa9cded9250811ad1067ea2e81b61affd8884604051610c8592919061357b565b60405180910390a1610c9688611404565b505b6111d0565b60008088815260200190815260200160002060020160009054906101000a900473ffffffffffffffffffffffffffffffffffffffff1673ffffffffffffffffffffffffffffffffffffffff163373ffffffffffffffffffffffffffffffffffffffff16036111945760008088815260200190815260200160002060010160009054906101000a900473ffffffffffffffffffffffffffffffffffffffff16915060005b8451811015610e0d57848181518110610d5c57610d5b613328565b5b60200260200101518611610db45783858281518110610d7e57610d7d613328565b5b6020026020010151604051602001610d97929190613378565b604051602081830303815290604052805190602001209350610dfa565b848181518110610dc757610dc6613328565b5b602002602001015184604051602001610de1929190613378565b6040516020818303038152906040528051906020012093505b8080610e05906133d3565b915050610d40565b50600080888152602001908152602001600020600401548303610edf578515610e7b57600160008089815260200190815260200160002060020160158282829054906101000a900460ff16610e62919061341b565b92506101000a81548160ff021916908360ff1602179055505b7f855f1073f65329e50d915d9230e603d17a089a31ae0d1086791d8da67deb2fdd87876000808b815260200190815260200160002060020160159054906101000a900460ff1685604051610ed2949392919061349f565b60405180910390a1610fd9565b3390507f55030dddf9a469d8f111f37e767d2f68919b9bbeb24f1cbb870022d336b76e39878783604051610f15939291906134e4565b60405180910390a1600080600089815260200190815260200160002060060154905060008060008a81526020019081526020016000206006018190555060008089815260200190815260200160002060020160009054906101000a900473ffffffffffffffffffffffffffffffffffffffff1673ffffffffffffffffffffffffffffffffffffffff166108fc829081150290604051600060405180830381858888f19350505050158015610fcd573d6000803e3d6000fd5b50610fd788611404565b505b600080600089815260200190815260200160002060020160159054906101000a900460ff1660ff160361118f57600080600089815260200190815260200160002060060154905060008060008a81526020019081526020016000206006018190555060008089815260200190815260200160002060010160009054906101000a900473ffffffffffffffffffffffffffffffffffffffff1673ffffffffffffffffffffffffffffffffffffffff166108fc600283611097919061354a565b9081150290604051600060405180830381858888f193505050501580156110c2573d6000803e3d6000fd5b5060008089815260200190815260200160002060020160009054906101000a900473ffffffffffffffffffffffffffffffffffffffff1673ffffffffffffffffffffffffffffffffffffffff166108fc60028361111f919061354a565b9081150290604051600060405180830381858888f1935050505015801561114a573d6000803e3d6000fd5b507f84f8e1147ed860fdcb13c73d1ec1bf4aa9cded9250811ad1067ea2e81b61affd888460405161117c92919061357b565b60405180910390a161118d88611404565b505b6111cf565b6040517f08c379a00000000000000000000000000000000000000000000000000000000081526004016111c69061310c565b60405180910390fd5b5b50505050505050565b6002600084815260200190815260200160002060009054906101000a900460ff16611239576040517f08c379a00000000000000000000000000000000000000000000000000000000081526004016112309061300e565b60405180910390fd5b600080600085815260200190815260200160002060010160009054906101000a900473ffffffffffffffffffffffffffffffffffffffff1673ffffffffffffffffffffffffffffffffffffffff163373ffffffffffffffffffffffffffffffffffffffff16036112e05760008085815260200190815260200160002060020160009054906101000a900473ffffffffffffffffffffffffffffffffffffffff1690506113c1565b60008085815260200190815260200160002060020160009054906101000a900473ffffffffffffffffffffffffffffffffffffffff1673ffffffffffffffffffffffffffffffffffffffff163373ffffffffffffffffffffffffffffffffffffffff16036113855760008085815260200190815260200160002060010160009054906101000a900473ffffffffffffffffffffffffffffffffffffffff1690506113c0565b6040517f08c379a00000000000000000000000000000000000000000000000000000000081526004016113b79061310c565b60405180910390fd5b5b7f550254768e80f7aee079fbce47106c8b8c42e2a41515ba637e7c1fe5f4373c5f848285856040516113f694939291906135a4565b60405180910390a150505050565b6002600082815260200190815260200160002060009054906101000a900460ff16611464576040517f08c379a000000000000000000000000000000000000000000000000000000000815260040161145b9061300e565b60405180910390fd5b600080600090505b6001808054905061147d91906135e9565b8160ff1610156114c65760018160ff168154811061149e5761149d613328565b5b906000526020600020015483036114b3578091505b80806114be9061361d565b91505061146c565b5060008190505b600180805490506114de91906135e9565b8160ff16101561154d57600180826114f69190613646565b60ff168154811061150a57611509613328565b5b906000526020600020015460018260ff168154811061152c5761152b613328565b5b906000526020600020018190555080806115459061361d565b9150506114cd565b5060018054806115605761155f61367d565b5b600190038181906000526020600020016000905590556000808381526020019081526020016000206000808201600090556001820160006101000a81549073ffffffffffffffffffffffffffffffffffffffff02191690556002820160006101000a81549073ffffffffffffffffffffffffffffffffffffffff02191690556002820160146101000a81549060ff02191690556002820160156101000a81549060ff0219169055600382016000905560048201600090556005820160006101000a81549060ff0219169055600682016000905560078201600090556008820160006101000a81549073ffffffffffffffffffffffffffffffffffffffff02191690556009820160009055600a820160006101000a81549060ff021916905550506002600083815260200190815260200160002060006101000a81549060ff02191690555050565b6002600082815260200190815260200160002060009054906101000a900460ff16611707576040517f08c379a00000000000000000000000000000000000000000000000000000000081526004016116fe9061300e565b60405180910390fd5b60008082815260200190815260200160002060020160009054906101000a900473ffffffffffffffffffffffffffffffffffffffff1673ffffffffffffffffffffffffffffffffffffffff163373ffffffffffffffffffffffffffffffffffffffff16146117aa576040517f08c379a00000000000000000000000000000000000000000000000000000000081526004016117a1906132c2565b60405180910390fd5b600080828152602001908152602001600020600601543414611801576040517f08c379a00000000000000000000000000000000000000000000000000000000081526004016117f8906136f8565b60405180910390fd5b3460008083815260200190815260200160002060060160008282546118269190613718565b925050819055506000806000838152602001908152602001600020600a0160006101000a81548160ff0219169083151502179055507fe4aafd5e36da5f14ecd7510cf0cf99b8e79301353aa2e4e06b3783d1c077b1b881600080848152602001908152602001600020600a0160009054906101000a900460ff166040516118ae92919061376e565b60405180910390a150565b6002600082815260200190815260200160002060009054906101000a900460ff16611919576040517f08c379a00000000000000000000000000000000000000000000000000000000081526004016119109061300e565b60405180910390fd5b600073ffffffffffffffffffffffffffffffffffffffff1660008083815260200190815260200160002060080160009054906101000a900473ffffffffffffffffffffffffffffffffffffffff1673ffffffffffffffffffffffffffffffffffffffff16146119bd576040517f08c379a00000000000000000000000000000000000000000000000000000000081526004016119b4906137e3565b60405180910390fd5b60008082815260200190815260200160002060010160009054906101000a900473ffffffffffffffffffffffffffffffffffffffff1673ffffffffffffffffffffffffffffffffffffffff163373ffffffffffffffffffffffffffffffffffffffff1603611ab35760008082815260200190815260200160002060020160009054906101000a900473ffffffffffffffffffffffffffffffffffffffff1660008083815260200190815260200160002060080160006101000a81548173ffffffffffffffffffffffffffffffffffffffff021916908373ffffffffffffffffffffffffffffffffffffffff160217905550611be5565b60008082815260200190815260200160002060020160009054906101000a900473ffffffffffffffffffffffffffffffffffffffff1673ffffffffffffffffffffffffffffffffffffffff163373ffffffffffffffffffffffffffffffffffffffff1603611ba95760008082815260200190815260200160002060010160009054906101000a900473ffffffffffffffffffffffffffffffffffffffff1660008083815260200190815260200160002060080160006101000a81548173ffffffffffffffffffffffffffffffffffffffff021916908373ffffffffffffffffffffffffffffffffffffffff160217905550611be4565b6040517f08c379a0000000000000000000000000000000000000000000000000000000008152600401611bdb9061310c565b60405180910390fd5b5b600543611bf29190613718565b600080838152602001908152602001600020600901819055507fc5c93cc43fd1bcb1e90b514e68448481bfe4a166ec21e035b105537579cd76ff8160008084815260200190815260200160002060080160009054906101000a900473ffffffffffffffffffffffffffffffffffffffff1660008085815260200190815260200160002060090154604051611c8893929190613803565b60405180910390a150565b600060018080549050611ca4612b0e565b611cae919061383a565b81548110611cbf57611cbe613328565b5b9060005260206000200154905060011515600080838152602001908152602001600020600a0160009054906101000a900460ff16151514611d35576040517f08c379a0000000000000000000000000000000000000000000000000000000008152600401611d2c906138b7565b60405180910390fd5b3360008083815260200190815260200160002060020160006101000a81548173ffffffffffffffffffffffffffffffffffffffff021916908373ffffffffffffffffffffffffffffffffffffffff1602179055507e4ebfaa31cbffbc6153e59600fc32781d899d6407d5a651e9d2864105f812216000808381526020019081526020016000206000015460008084815260200190815260200160002060010160009054906101000a900473ffffffffffffffffffffffffffffffffffffffff1660008085815260200190815260200160002060020160009054906101000a900473ffffffffffffffffffffffffffffffffffffffff1660008086815260200190815260200160002060020160149054906101000a900460ff1660008087815260200190815260200160002060020160159054906101000a900460ff1660008088815260200190815260200160002060050160009054906101000a900460ff1660008089815260200190815260200160002060060154604051611ebd97969594939291906138d7565b60405180910390a150565b6002600082815260200190815260200160002060009054906101000a900460ff16611f28576040517f08c379a0000000000000000000000000000000000000000000000000000000008152600401611f1f9061300e565b60405180910390fd5b60008082815260200190815260200160002060010160009054906101000a900473ffffffffffffffffffffffffffffffffffffffff1673ffffffffffffffffffffffffffffffffffffffff163373ffffffffffffffffffffffffffffffffffffffff1603612009576000801b6000808381526020019081526020016000206003015414611fea576040517f08c379a0000000000000000000000000000000000000000000000000000000008152600401611fe1906139b8565b60405180910390fd5b8160008083815260200190815260200160002060030181905550612126565b60008082815260200190815260200160002060020160009054906101000a900473ffffffffffffffffffffffffffffffffffffffff1673ffffffffffffffffffffffffffffffffffffffff163373ffffffffffffffffffffffffffffffffffffffff16036120ea576000801b60008083815260200190815260200160002060040154146120cb576040517f08c379a00000000000000000000000000000000000000000000000000000000081526004016120c290613a4a565b60405180910390fd5b8160008083815260200190815260200160002060040181905550612125565b6040517f08c379a000000000000000000000000000000000000000000000000000000000815260040161211c9061310c565b60405180910390fd5b5b5050565b61213382612b4e565b612172576040517f08c379a000000000000000000000000000000000000000000000000000000000815260040161216990613ab6565b60405180910390fd5b600081116121b5576040517f08c379a00000000000000000000000000000000000000000000000000000000081526004016121ac9061319e565b60405180910390fd5b8034146121f7576040517f08c379a00000000000000000000000000000000000000000000000000000000081526004016121ee90613b22565b60405180910390fd5b6000612201612b0e565b90506001819080600181540180825580915050600190039060005260206000200160009091909190915055604051806101a001604052808281526020013373ffffffffffffffffffffffffffffffffffffffff168152602001600073ffffffffffffffffffffffffffffffffffffffff168152602001600060ff168152602001600060ff1681526020016000801b81526020016000801b81526020018460ff16815260200134815260200160008152602001600073ffffffffffffffffffffffffffffffffffffffff16815260200160008152602001600115158152506000808381526020019081526020016000206000820151816000015560208201518160010160006101000a81548173ffffffffffffffffffffffffffffffffffffffff021916908373ffffffffffffffffffffffffffffffffffffffff16021790555060408201518160020160006101000a81548173ffffffffffffffffffffffffffffffffffffffff021916908373ffffffffffffffffffffffffffffffffffffffff16021790555060608201518160020160146101000a81548160ff021916908360ff16021790555060808201518160020160156101000a81548160ff021916908360ff16021790555060a0820151816003015560c0820151816004015560e08201518160050160006101000a81548160ff021916908360ff160217905550610100820151816006015561012082015181600701556101408201518160080160006101000a81548173ffffffffffffffffffffffffffffffffffffffff021916908373ffffffffffffffffffffffffffffffffffffffff160217905550610160820151816009015561018082015181600a0160006101000a81548160ff02191690831515021790555090505060016002600083815260200190815260200160002060006101000a81548160ff02191690831515021790555060088360ff160361252657601760008083815260200190815260200160002060020160146101000a81548160ff021916908360ff160217905550601760008083815260200190815260200160002060020160156101000a81548160ff021916908360ff1602179055506125f4565b60108360ff160361259457602a60008083815260200190815260200160002060020160146101000a81548160ff021916908360ff160217905550602a60008083815260200190815260200160002060020160156101000a81548160ff021916908360ff1602179055506125f3565b604760008083815260200190815260200160002060020160146101000a81548160ff021916908360ff160217905550604760008083815260200190815260200160002060020160156101000a81548160ff021916908360ff1602179055505b5b7fa0b7f6f22bb4f69adc52dd16ffe2a964ab8b577be274247fa9a1547b03ce3e55816040516126239190613b42565b60405180910390a1505050565b6002600082815260200190815260200160002060009054906101000a900460ff16612690576040517f08c379a00000000000000000000000000000000000000000000000000000000081526004016126879061300e565b60405180910390fd5b60011515600080838152602001908152602001600020600a0160009054906101000a900460ff161515146126f9576040517f08c379a00000000000000000000000000000000000000000000000000000000081526004016126f0906138b7565b60405180910390fd5b3360008083815260200190815260200160002060020160006101000a81548173ffffffffffffffffffffffffffffffffffffffff021916908373ffffffffffffffffffffffffffffffffffffffff1602179055507e4ebfaa31cbffbc6153e59600fc32781d899d6407d5a651e9d2864105f812216000808381526020019081526020016000206000015460008084815260200190815260200160002060010160009054906101000a900473ffffffffffffffffffffffffffffffffffffffff1660008085815260200190815260200160002060020160009054906101000a900473ffffffffffffffffffffffffffffffffffffffff1660008086815260200190815260200160002060020160149054906101000a900460ff1660008087815260200190815260200160002060020160159054906101000a900460ff1660008088815260200190815260200160002060050160009054906101000a900460ff166000808981526020019081526020016000206006015460405161288197969594939291906138d7565b60405180910390a150565b6002600082815260200190815260200160002060009054906101000a900460ff166128ec576040517f08c379a00000000000000000000000000000000000000000000000000000000081526004016128e39061300e565b60405180910390fd5b60008082815260200190815260200160002060010160009054906101000a900473ffffffffffffffffffffffffffffffffffffffff1673ffffffffffffffffffffffffffffffffffffffff163373ffffffffffffffffffffffffffffffffffffffff161461298f576040517f08c379a000000000000000000000000000000000000000000000000000000000815260040161298690613bcf565b60405180910390fd5b6000806000838152602001908152602001600020600701549050600080600084815260200190815260200160002060060154905080821115612a2b5780826129d791906135e9565b3414612a18576040517f08c379a0000000000000000000000000000000000000000000000000000000008152600401612a0f90613c87565b60405180910390fd5b3481612a249190613718565b9050612a87565b60008282612a3991906135e9565b90508291503373ffffffffffffffffffffffffffffffffffffffff166108fc829081150290604051600060405180830381858888f19350505050158015612a84573d6000803e3d6000fd5b50505b806000808581526020019081526020016000206006018190555081600080858152602001908152602001600020600701819055507ff01cadfdcdde98eb22f9cfba53f17068fa3db151c31177895ad4104b88c0c90d8360008086815260200190815260200160002060060154604051612b01929190613ca7565b60405180910390a1505050565b6000600143612b1d91906135e9565b4042604051602001612b30929190613cf1565b6040516020818303038152906040528051906020012060001c905090565b600060088260ff161480612b65575060108260ff16145b80612b73575060208260ff16145b9050919050565b6000604051905090565b600080fd5b600080fd5b6000819050919050565b612ba181612b8e565b8114612bac57600080fd5b50565b600081359050612bbe81612b98565b92915050565b600060208284031215612bda57612bd9612b84565b5b6000612be884828501612baf565b91505092915050565b60008115159050919050565b612c0681612bf1565b82525050565b6000602082019050612c216000830184612bfd565b92915050565b60008060408385031215612c3e57612c3d612b84565b5b6000612c4c85828601612baf565b9250506020612c5d85828601612baf565b9150509250929050565b612c7081612bf1565b8114612c7b57600080fd5b50565b600081359050612c8d81612c67565b92915050565b6000819050919050565b612ca681612c93565b8114612cb157600080fd5b50565b600081359050612cc381612c9d565b92915050565b600080fd5b6000601f19601f8301169050919050565b7f4e487b7100000000000000000000000000000000000000000000000000000000600052604160045260246000fd5b612d1782612cce565b810181811067ffffffffffffffff82111715612d3657612d35612cdf565b5b80604052505050565b6000612d49612b7a565b9050612d558282612d0e565b919050565b600067ffffffffffffffff821115612d7557612d74612cdf565b5b602082029050602081019050919050565b600080fd5b6000612d9e612d9984612d5a565b612d3f565b90508083825260208201905060208402830185811115612dc157612dc0612d86565b5b835b81811015612dea5780612dd68882612cb4565b845260208401935050602081019050612dc3565b5050509392505050565b600082601f830112612e0957612e08612cc9565b5b8135612e19848260208601612d8b565b91505092915050565b60008060008060808587031215612e3c57612e3b612b84565b5b6000612e4a87828801612baf565b9450506020612e5b87828801612c7e565b9350506040612e6c87828801612cb4565b925050606085013567ffffffffffffffff811115612e8d57612e8c612b89565b5b612e9987828801612df4565b91505092959194509250565b600060ff82169050919050565b612ebb81612ea5565b8114612ec657600080fd5b50565b600081359050612ed881612eb2565b92915050565b600080600060608486031215612ef757612ef6612b84565b5b6000612f0586828701612baf565b9350506020612f1686828701612ec9565b9250506040612f2786828701612ec9565b9150509250925092565b60008060408385031215612f4857612f47612b84565b5b6000612f5685828601612cb4565b9250506020612f6785828601612baf565b9150509250929050565b60008060408385031215612f8857612f87612b84565b5b6000612f9685828601612ec9565b9250506020612fa785828601612baf565b9150509250929050565b600082825260208201905092915050565b7f496e76616c69642067616d65206964656e746966696572000000000000000000600082015250565b6000612ff8601783612fb1565b915061300382612fc2565b602082019050919050565b6000602082019050818103600083015261302781612feb565b9050919050565b7f41636375736520776173206e6f74207375626d69747465640000000000000000600082015250565b6000613064601883612fb1565b915061306f8261302e565b602082019050919050565b6000602082019050818103600083015261309381613057565b9050919050565b7f596f7520617265206e6f742063726561746f72206f7220706c61796572206f6660008201527f20746869732067616d6500000000000000000000000000000000000000000000602082015250565b60006130f6602a83612fb1565b91506131018261309a565b604082019050919050565b60006020820190508181036000830152613125816130e9565b9050919050565b7f53656c656374206120706f73697469766520616d6f756e74206f66204554487360008201527f20666f72206465706f7369740000000000000000000000000000000000000000602082015250565b6000613188602c83612fb1565b91506131938261312c565b604082019050919050565b600060208201905081810360008301526131b78161317b565b9050919050565b7f43686f6f7365206120646966666572656e7420616d6f756e74206f662045544860008201527f7320666f72206465706f736974207468616e206265666f726500000000000000602082015250565b600061321a603983612fb1565b9150613225826131be565b604082019050919050565b600060208201905081810360008301526132498161320d565b9050919050565b7f596f752068617665206e6f207065726d697373696f6e20746f2070726f706f7360008201527f652061206e6577206465706f7369740000000000000000000000000000000000602082015250565b60006132ac602f83612fb1565b91506132b782613250565b604082019050919050565b600060208201905081810360008301526132db8161329f565b9050919050565b6132eb81612b8e565b82525050565b600060608201905061330660008301866132e2565b61331360208301856132e2565b61332060408301846132e2565b949350505050565b7f4e487b7100000000000000000000000000000000000000000000000000000000600052603260045260246000fd5b6000819050919050565b61337261336d82612c93565b613357565b82525050565b60006133848285613361565b6020820191506133948284613361565b6020820191508190509392505050565b7f4e487b7100000000000000000000000000000000000000000000000000000000600052601160045260246000fd5b60006133de82612b8e565b91507fffffffffffffffffffffffffffffffffffffffffffffffffffffffffffffffff82036134105761340f6133a4565b5b600182019050919050565b600061342682612ea5565b915061343183612ea5565b925082821015613444576134436133a4565b5b828203905092915050565b61345881612ea5565b82525050565b600073ffffffffffffffffffffffffffffffffffffffff82169050919050565b60006134898261345e565b9050919050565b6134998161347e565b82525050565b60006080820190506134b460008301876132e2565b6134c16020830186612bfd565b6134ce604083018561344f565b6134db6060830184613490565b95945050505050565b60006060820190506134f960008301866132e2565b6135066020830185612bfd565b6135136040830184613490565b949350505050565b7f4e487b7100000000000000000000000000000000000000000000000000000000600052601260045260246000fd5b600061355582612b8e565b915061356083612b8e565b9250826135705761356f61351b565b5b828204905092915050565b600060408201905061359060008301856132e2565b61359d6020830184613490565b9392505050565b60006080820190506135b960008301876132e2565b6135c66020830186613490565b6135d3604083018561344f565b6135e0606083018461344f565b95945050505050565b60006135f482612b8e565b91506135ff83612b8e565b925082821015613612576136116133a4565b5b828203905092915050565b600061362882612ea5565b915060ff820361363b5761363a6133a4565b5b600182019050919050565b600061365182612ea5565b915061365c83612ea5565b92508260ff03821115613672576136716133a4565b5b828201905092915050565b7f4e487b7100000000000000000000000000000000000000000000000000000000600052603160045260246000fd5b7f57726f6e67204554487320746f206a6f696e2067616d65000000000000000000600082015250565b60006136e2601783612fb1565b91506136ed826136ac565b602082019050919050565b60006020820190508181036000830152613711816136d5565b9050919050565b600061372382612b8e565b915061372e83612b8e565b9250827fffffffffffffffffffffffffffffffffffffffffffffffffffffffffffffffff03821115613763576137626133a4565b5b828201905092915050565b600060408201905061378360008301856132e2565b6137906020830184612bfd565b9392505050565b7f41636375736520616c7265616479207375626d69747465640000000000000000600082015250565b60006137cd601883612fb1565b91506137d882613797565b602082019050919050565b600060208201905081810360008301526137fc816137c0565b9050919050565b600060608201905061381860008301866132e2565b6138256020830185613490565b61383260408301846132e2565b949350505050565b600061384582612b8e565b915061385083612b8e565b9250826138605761385f61351b565b5b828206905092915050565b7f47616d652066756c6c2c2063686f6f736520616e6f746865722067616d652e00600082015250565b60006138a1601f83612fb1565b91506138ac8261386b565b602082019050919050565b600060208201905081810360008301526138d081613894565b9050919050565b600060e0820190506138ec600083018a6132e2565b6138f96020830189613490565b6139066040830188613490565b613913606083018761344f565b613920608083018661344f565b61392d60a083018561344f565b61393a60c08301846132e2565b98975050505050505050565b7f4d65726b6c6520526f6f74206f662063726561746f7220616c7265616479207360008201527f746f726564000000000000000000000000000000000000000000000000000000602082015250565b60006139a2602583612fb1565b91506139ad82613946565b604082019050919050565b600060208201905081810360008301526139d181613995565b9050919050565b7f4d65726b6c6520526f6f74206f6620706c6179657220616c726561647920737460008201527f6f72656400000000000000000000000000000000000000000000000000000000602082015250565b6000613a34602483612fb1565b9150613a3f826139d8565b604082019050919050565b60006020820190508181036000830152613a6381613a27565b9050919050565b7f556e636f727265637420626f6172642073697a65000000000000000000000000600082015250565b6000613aa0601483612fb1565b9150613aab82613a6a565b602082019050919050565b60006020820190508181036000830152613acf81613a93565b9050919050565b7f57726f6e67204554487320746f206372656174652067616d6500000000000000600082015250565b6000613b0c601983612fb1565b9150613b1782613ad6565b602082019050919050565b60006020820190508181036000830152613b3b81613aff565b9050919050565b6000602082019050613b5760008301846132e2565b92915050565b7f4f6e6c79207468652067616d652063726561746f722063616e206368616e676560008201527f206465706f736974000000000000000000000000000000000000000000000000602082015250565b6000613bb9602883612fb1565b9150613bc482613b5d565b604082019050919050565b60006020820190508181036000830152613be881613bac565b9050919050565b7f546865206e6577206465706f7369742073756d6d656420746f2074686520707260008201527f6576696f7573206973206e6f7420657175616c20746f207468652070726f706f60208201527f736564206f6e652e000000000000000000000000000000000000000000000000604082015250565b6000613c71604883612fb1565b9150613c7c82613bef565b606082019050919050565b60006020820190508181036000830152613ca081613c64565b9050919050565b6000604082019050613cbc60008301856132e2565b613cc960208301846132e2565b9392505050565b6000819050919050565b613ceb613ce682612b8e565b613cd0565b82525050565b6000613cfd8285613361565b602082019150613d0d8284613cda565b602082019150819050939250505056fea26469706673582212205b59d761b4259e3bec2dacea23556541eb02ab1ab43cce69ac345e21503d554e64736f6c634300080d0033",
  "immutableReferences": {},
  "source": "// SPDX-License-Identifier: MIT \r\npragma  solidity >=0.4.22 <0.9.0;\r\n\r\ncontract BattleShip {\r\n\r\n    struct infoGame{\r\n        uint256 gameId;\r\n        address creator;\r\n        address player;\r\n        uint8 counter_ships_creator;\r\n        uint8 counter_ships_player;\r\n        bytes32 merkle_root_creator;\r\n        bytes32 merkle_root_player;\r\n        uint8 board;\r\n        uint256 deposit;\r\n        uint256 proposedDeposit;\r\n        address accused;\r\n        uint256 acc_time;\r\n        bool available;\r\n    }\r\n\r\n    event NewGame(uint256 gameId);\r\n    event ProposedDeposit(uint256 gameId, uint256 actual_amount, uint256 new_amount);\r\n    event ChangeDeposit(uint256 gameId, uint256 eths);\r\n    event PaidDeposit(uint256 gameId, bool availability);\r\n    event SelectGame(uint256 gameId, address creator, address player, uint8 counter_ships_creator, uint8 counter_ships_player, uint8 board, uint256 deposit);\r\n    event ShotTorpedo(uint256 gameId, address target, uint8 col, uint8 row);\r\n    event ShotResult(uint256 gameId, bool result, uint8 counter_ships, address target_address);\r\n    event Cheater(uint256 gameId, bool result, address cheater);\r\n    event EndGame(uint256 gameId, address winner);\r\n    event SubmitAccuse(uint256 gameId, address accused, uint256 time);\r\n\r\n\r\n    mapping (uint256 => infoGame) games;\r\n    uint256[] gameIds;     //array with all gameIds created\r\n    mapping (uint256 => bool) valid_ids;\r\n\r\n    constructor(){}\r\n    /*\r\n    * Random generator exploiting hash of previous block and the timestamp of actual block\r\n    */\r\n    function randomGenerator() private view returns (uint256){\r\n        return uint256(keccak256(abi.encodePacked(blockhash(block.number - 1), block.timestamp)));\r\n    }\r\n\r\n\r\n    /*\r\n    * Admitted board size are 8, 16, 32. (reference for 8x8, 16x16, 32x32)\r\n    */\r\n    function checkBoard(uint8 tmp) private pure returns (bool){\r\n        return (tmp == 8 || tmp == 16 || tmp == 32);\r\n    }\r\n\r\n    /*\r\n    * Creator of game can change deposit when joined player makes a new deposit propose,\r\n    * and automatically creator accepts the propose.\r\n    */\r\n    function changeDeposit(uint256 gameId) public payable{\r\n\r\n        require(valid_ids[gameId], \"Invalid game identifier\");\r\n        require(msg.sender == games[gameId].creator, \"Only the game creator can change deposit\");\r\n\r\n        uint256 proposed_dep = games[gameId].proposedDeposit;\r\n        uint256 dep = games[gameId].deposit;\r\n\r\n        if(proposed_dep > dep) {\r\n            require(msg.value == (proposed_dep - dep), \"The new deposit summed to the previous is not equal to the proposed one.\");\r\n            dep += msg.value;\r\n        } else {\r\n            uint256 diff = dep - proposed_dep;\r\n            dep = proposed_dep;\r\n           payable(msg.sender).transfer(diff);\r\n        }\r\n\r\n        games[gameId].deposit = dep;\r\n        games[gameId].proposedDeposit = proposed_dep;\r\n\r\n        emit ChangeDeposit(\r\n            gameId,\r\n            games[gameId].deposit\r\n        );\r\n    }\r\n\r\n    /*\r\n    * Player can propose a deposit.\r\n    */\r\n    function proposeDeposit(uint256 gameId, uint256 new_deposit) public{\r\n\r\n        require(valid_ids[gameId], \"Invalid game identifier\");\r\n        require(new_deposit > 0, \"Select a positive amount of ETHs for deposit\");\r\n        require(new_deposit != games[gameId].deposit, \"Choose a different amount of ETHs for deposit than before\");\r\n        \r\n        if(msg.sender == games[gameId].player) {\r\n            games[gameId].proposedDeposit = new_deposit;\r\n        } else {\r\n            revert(\"You have no permission to propose a new deposit\");\r\n        }\r\n        emit  ProposedDeposit(\r\n                gameId,\r\n                games[gameId].deposit,\r\n                games[gameId].proposedDeposit\r\n            );\r\n    }\r\n\r\n    /*\r\n    * Function only for player to pay deposit and finally join the game. After the payment\r\n    * game is not available anymore in the games list.\r\n    */\r\n    function payDeposit(uint256 gameId) public payable{\r\n\r\n        require(valid_ids[gameId], \"Invalid game identifier\");\r\n\r\n        if(msg.sender != games[gameId].player) {\r\n            revert(\"You have no permission to propose a new deposit\");\r\n        }\r\n\r\n        require(msg.value == games[gameId].deposit, \"Wrong ETHs to join game\");\r\n        games[gameId].deposit += msg.value;\r\n        games[gameId].available = false;\r\n\r\n        emit PaidDeposit(\r\n            gameId,\r\n            games[gameId].available);\r\n    }\r\n\r\n    /*\r\n    * Removes a specific game at the end of the game, from gamesIds array and from\r\n    * games map.\r\n    */\r\n    function deleteGame(uint gameId) public{\r\n\r\n        require(valid_ids[gameId], \"Invalid game identifier\");\r\n        \r\n        uint8 index;\r\n\r\n        for(uint8 i = 0; i < gameIds.length - 1; i++) {\r\n            if(gameId == gameIds[i]) {\r\n                index = i;\r\n            }\r\n        }\r\n\r\n        for(uint8 i = index; i < gameIds.length - 1; i++) {\r\n            gameIds[i] = gameIds[i + 1];\r\n        }\r\n\r\n        gameIds.pop();\r\n        delete(games[gameId]);\r\n        delete(valid_ids[gameId]);\r\n    }\r\n\r\n\r\n    function createGame(uint8 board, uint256 deposit) public payable{\r\n\r\n        require(checkBoard(board), \"Uncorrect board size\");\r\n        require(deposit > 0, \"Select a positive amount of ETHs for deposit\");\r\n        require(msg.value == deposit, \"Wrong ETHs to create game\");\r\n\r\n        uint256 id = randomGenerator();\r\n        gameIds.push(id);\r\n        games[id] = infoGame (id, msg.sender, address(0), 0, 0, 0, 0, board, msg.value, 0,address(0), 0, true);\r\n        valid_ids[id] = true;\r\n\r\n        if (board == 8) {\r\n            games[id].counter_ships_creator = 23;\r\n            games[id].counter_ships_player = 23;\r\n        } else if (board == 16) {\r\n            games[id].counter_ships_creator = 42;\r\n            games[id].counter_ships_player = 42;\r\n        } else {\r\n            games[id].counter_ships_creator = 71;\r\n            games[id].counter_ships_player = 71;\r\n        }\r\n        \r\n        emit NewGame(id);\r\n    }\r\n\r\n\r\n    function joinGameRandom() public{\r\n\r\n        uint256 rand_id;\r\n        rand_id = gameIds[randomGenerator() % gameIds.length];\r\n        require(games[rand_id].available == true, \"Game full, choose another game.\");\r\n\r\n        games[rand_id].player = msg.sender;\r\n\r\n        emit SelectGame(\r\n            games[rand_id].gameId,\r\n            games[rand_id].creator,\r\n            games[rand_id].player,\r\n            games[rand_id].counter_ships_creator,\r\n            games[rand_id].counter_ships_player,\r\n            games[rand_id].board,\r\n            games[rand_id].deposit\r\n        );\r\n\r\n    }\r\n\r\n\r\n    function joinGameId(uint256 gameId) public{\r\n\r\n        require(valid_ids[gameId], \"Invalid game identifier\");\r\n        require(games[gameId].available == true, \"Game full, choose another game.\");\r\n\r\n        games[gameId].player = msg.sender;\r\n\r\n        emit SelectGame(\r\n                games[gameId].gameId,\r\n                games[gameId].creator,\r\n                games[gameId].player,\r\n                games[gameId].counter_ships_creator,\r\n                games[gameId].counter_ships_player,\r\n                games[gameId].board,\r\n                games[gameId].deposit\r\n\r\n            );\r\n    }\r\n\r\n    function submitMerkleRoot(bytes32 merkle_root, uint256 gameId) public{\r\n\r\n        require(valid_ids[gameId], \"Invalid game identifier\");\r\n\r\n        if (msg.sender == games[gameId].creator) {\r\n            require(games[gameId].merkle_root_creator == 0, \"Merkle Root of creator already stored\");\r\n            games[gameId].merkle_root_creator = merkle_root;\r\n        } else if(msg.sender == games[gameId].player){\r\n            require(games[gameId].merkle_root_player == 0, \"Merkle Root of player already stored\");\r\n            games[gameId].merkle_root_player = merkle_root;\r\n        } else {\r\n            revert(\"You are not creator or player of this game\");\r\n        }\r\n    }\r\n\r\n\r\n    function shotTorpedo(uint256 gameId,  uint8 col, uint8 row) public{\r\n\r\n        require(valid_ids[gameId], \"Invalid game identifier\");\r\n\r\n        address target_address;\r\n        if (msg.sender == games[gameId].creator) {\r\n            target_address = games[gameId].player;\r\n        } else if (msg.sender == games[gameId].player){\r\n            target_address = games[gameId].creator;\r\n        } else {\r\n            revert(\"You are not creator or player of this game\");\r\n        }\r\n\r\n        emit ShotTorpedo(\r\n            gameId,\r\n            target_address,\r\n            col,\r\n            row\r\n        );\r\n    }\r\n\r\n    function shotResult(uint256 gameId, bool result, bytes32 leaf, bytes32[] memory merkle_proof) public payable{\r\n\r\n        require(valid_ids[gameId], \"Invalid game identifier\");\r\n        bytes32 computed_hash = leaf;\r\n        address shooter_address;\r\n        address cheater_address;\r\n\r\n        if (msg.sender == games[gameId].creator) { \r\n            shooter_address = games[gameId].player;\r\n\r\n            for (uint256 i = 0; i < merkle_proof.length; i++) {\r\n\r\n                if (leaf <= merkle_proof[i]) {\r\n                    // Hash(current computed hash + current element of the proof)\r\n                    computed_hash = keccak256(abi.encodePacked(computed_hash, merkle_proof[i]));\r\n                } else {\r\n                    // Hash(current element of the proof + current computed hash)\r\n                    computed_hash = keccak256(abi.encodePacked(merkle_proof[i], computed_hash));\r\n                }\r\n        \r\n            }\r\n            \r\n            if(computed_hash == games[gameId].merkle_root_creator) {\r\n                if(result) {\r\n                    games[gameId].counter_ships_creator -= 1;\r\n                }\r\n\r\n                emit ShotResult(\r\n                    gameId,\r\n                    result,\r\n                    games[gameId].counter_ships_creator,\r\n                    shooter_address\r\n                );\r\n            } else {\r\n                //Creator is a cheater, all deposit is sent to Player because Creator's bad beavhiour.\r\n                cheater_address = msg.sender;\r\n                emit Cheater(\r\n                    gameId,\r\n                    result,\r\n                    cheater_address\r\n                );\r\n\r\n                uint256 amount = games[gameId].deposit;\r\n                games[gameId].deposit = 0;\r\n                payable(games[gameId].player).transfer(amount);\r\n                deleteGame(gameId);\r\n            }\r\n\r\n            if(games[gameId].counter_ships_creator == 0) {\r\n\r\n                //Player is the winner, deposit is sent to both creator and Player because\r\n                //they played following rules, without cheating.\r\n                \r\n                uint256 amount = games[gameId].deposit;\r\n                games[gameId].deposit = 0;\r\n                payable(games[gameId].creator).transfer(amount/2);\r\n                payable(games[gameId].player).transfer(amount/2);\r\n\r\n                emit EndGame(gameId, shooter_address);\r\n                deleteGame(gameId);\r\n            }\r\n\r\n        } else if (msg.sender == games[gameId].player){\r\n            shooter_address = games[gameId].creator;\r\n\r\n            for (uint256 i = 0; i < merkle_proof.length; i++) {\r\n\r\n                if (leaf <= merkle_proof[i]) {\r\n                    // Hash(current computed hash + current element of the proof)\r\n                    computed_hash = keccak256(abi.encodePacked(computed_hash, merkle_proof[i]));\r\n                } else {\r\n                    // Hash(current element of the proof + current computed hash)\r\n                    computed_hash = keccak256(abi.encodePacked(merkle_proof[i], computed_hash));\r\n                }\r\n        \r\n            }\r\n            \r\n            if(computed_hash == games[gameId].merkle_root_player) {\r\n                if(result) {\r\n                    games[gameId].counter_ships_player -= 1;\r\n                }\r\n\r\n                emit ShotResult(\r\n                    gameId,\r\n                    result,\r\n                    games[gameId].counter_ships_player,\r\n                    shooter_address\r\n                );\r\n            } else {\r\n                //Player is a cheater, all deposit is sent to Creator because Player's bad beavhiour.\r\n                cheater_address = msg.sender;\r\n                emit Cheater(\r\n                    gameId,\r\n                    result,\r\n                    cheater_address\r\n                );\r\n\r\n                uint256 amount = games[gameId].deposit;\r\n                games[gameId].deposit = 0;\r\n                payable(games[gameId].player).transfer(amount);\r\n                deleteGame(gameId);\r\n            }\r\n\r\n            if(games[gameId].counter_ships_player == 0) {\r\n\r\n                //Creator is the winner, deposit is sent to both Creator and Player because\r\n                //they played following rules, without cheating.\r\n                \r\n                uint256 amount = games[gameId].deposit;\r\n                games[gameId].deposit = 0;\r\n                payable(games[gameId].creator).transfer(amount/2);\r\n                payable(games[gameId].player).transfer(amount/2);\r\n\r\n                emit EndGame(gameId, shooter_address);\r\n                deleteGame(gameId);\r\n            }\r\n           \r\n        } else {\r\n            revert(\"You are not creator or player of this game\");\r\n        }\r\n    }\r\n\r\n    function submitAccuse(uint256 gameId) public{\r\n\r\n        require(valid_ids[gameId], \"Invalid game identifier\");\r\n        require(games[gameId].accused == address(0), \"Accuse already submitted\");\r\n\r\n        if (msg.sender == games[gameId].creator) {\r\n           games[gameId].accused = games[gameId].player;\r\n        } else if (msg.sender == games[gameId].player){\r\n            games[gameId].accused = games[gameId].creator;\r\n        } else {\r\n            revert(\"You are not creator or player of this game\");\r\n        }\r\n\r\n        games[gameId].acc_time = block.number + 5;\r\n\r\n        emit SubmitAccuse(\r\n            gameId,\r\n            games[gameId].accused,\r\n            games[gameId].acc_time\r\n        );\r\n\r\n    }\r\n\r\n    function verifyAccuse(uint256 gameId) public payable returns(bool){\r\n\r\n        require(valid_ids[gameId], \"Invalid game identifier\");\r\n        require(games[gameId].accused != address(0), \"Accuse was not submitted\");\r\n        bool accuse = false;\r\n\r\n        if (msg.sender != games[gameId].creator && msg.sender != games[gameId].player) {\r\n            revert(\"You are not creator or player of this game\");\r\n        }\r\n\r\n        if(games[gameId].acc_time <= block.number) {\r\n            uint256 amount = games[gameId].deposit;\r\n            games[gameId].deposit = 0;\r\n            payable(msg.sender).transfer(amount);\r\n            accuse = true;\r\n        }\r\n        return accuse;\r\n    }\r\n}",
  "sourcePath": "C:\\Users\\andre\\OneDrive - University of Pisa\\Peer to Peer & Blockchain\\solidity_project\\BattleShip\\contracts\\BattleShip.sol",
  "compiler": {
    "name": "solc",
    "version": "0.8.13+commit.abaa5c0e.Emscripten.clang"
  },
  "schemaVersion": "3.4.16",
  "updatedAt": "2023-09-22T16:37:45.530Z",
  "networkType": "ethereum",
  "devdoc": {
    "kind": "dev",
    "methods": {},
    "version": 1
  },
  "userdoc": {
    "kind": "user",
    "methods": {},
    "version": 1
  }
}