{
  "contractName": "BattleShip",
  "abi": [
    {
      "inputs": [],
      "stateMutability": "nonpayable",
      "type": "constructor"
    },
    {
      "anonymous": false,
      "inputs": [
        {
          "indexed": false,
          "internalType": "uint8",
          "name": "gameId",
          "type": "uint8"
        },
        {
          "indexed": false,
          "internalType": "uint256",
          "name": "eths",
          "type": "uint256"
        },
        {
          "indexed": false,
          "internalType": "address",
          "name": "tx_sender",
          "type": "address"
        }
      ],
      "name": "ChangeDeposit",
      "type": "event"
    },
    {
      "anonymous": false,
      "inputs": [
        {
          "indexed": false,
          "internalType": "uint8",
          "name": "gameId",
          "type": "uint8"
        },
        {
          "indexed": false,
          "internalType": "address",
          "name": "tx_sender",
          "type": "address"
        }
      ],
      "name": "DeleteGame",
      "type": "event"
    },
    {
      "anonymous": false,
      "inputs": [
        {
          "indexed": false,
          "internalType": "uint8",
          "name": "gameId",
          "type": "uint8"
        },
        {
          "indexed": false,
          "internalType": "uint8",
          "name": "counter_ships",
          "type": "uint8"
        },
        {
          "indexed": false,
          "internalType": "address",
          "name": "tx_sender",
          "type": "address"
        }
      ],
      "name": "NewGame",
      "type": "event"
    },
    {
      "anonymous": false,
      "inputs": [
        {
          "indexed": false,
          "internalType": "uint8",
          "name": "gameId",
          "type": "uint8"
        },
        {
          "indexed": false,
          "internalType": "bool",
          "name": "availability",
          "type": "bool"
        },
        {
          "indexed": false,
          "internalType": "address",
          "name": "tx_sender",
          "type": "address"
        }
      ],
      "name": "PaidDeposit",
      "type": "event"
    },
    {
      "anonymous": false,
      "inputs": [
        {
          "indexed": false,
          "internalType": "uint8",
          "name": "gameId",
          "type": "uint8"
        },
        {
          "indexed": false,
          "internalType": "uint256",
          "name": "actual_amount",
          "type": "uint256"
        },
        {
          "indexed": false,
          "internalType": "uint256",
          "name": "new_amount",
          "type": "uint256"
        },
        {
          "indexed": false,
          "internalType": "address",
          "name": "tx_sender",
          "type": "address"
        }
      ],
      "name": "ProposedDeposit",
      "type": "event"
    },
    {
      "anonymous": false,
      "inputs": [
        {
          "indexed": false,
          "internalType": "uint8",
          "name": "gameId",
          "type": "uint8"
        },
        {
          "indexed": false,
          "internalType": "address",
          "name": "tx_sender",
          "type": "address"
        }
      ],
      "name": "RemoveAccuse",
      "type": "event"
    },
    {
      "anonymous": false,
      "inputs": [
        {
          "indexed": false,
          "internalType": "uint8",
          "name": "gameId",
          "type": "uint8"
        },
        {
          "indexed": false,
          "internalType": "uint8",
          "name": "counter_ships",
          "type": "uint8"
        },
        {
          "indexed": false,
          "internalType": "uint8",
          "name": "board_size",
          "type": "uint8"
        },
        {
          "indexed": false,
          "internalType": "uint256",
          "name": "deposit",
          "type": "uint256"
        },
        {
          "indexed": false,
          "internalType": "address",
          "name": "tx_sender",
          "type": "address"
        }
      ],
      "name": "SelectGame",
      "type": "event"
    },
    {
      "anonymous": false,
      "inputs": [
        {
          "indexed": false,
          "internalType": "uint8",
          "name": "gameId",
          "type": "uint8"
        },
        {
          "indexed": false,
          "internalType": "bool",
          "name": "result",
          "type": "bool"
        },
        {
          "indexed": false,
          "internalType": "uint8",
          "name": "col",
          "type": "uint8"
        },
        {
          "indexed": false,
          "internalType": "uint8",
          "name": "row",
          "type": "uint8"
        },
        {
          "indexed": false,
          "internalType": "bool",
          "name": "end_game",
          "type": "bool"
        },
        {
          "indexed": false,
          "internalType": "bool",
          "name": "cheater",
          "type": "bool"
        },
        {
          "indexed": false,
          "internalType": "address",
          "name": "tx_sender",
          "type": "address"
        },
        {
          "indexed": false,
          "internalType": "address",
          "name": "shooter_address",
          "type": "address"
        }
      ],
      "name": "ShotResult",
      "type": "event"
    },
    {
      "anonymous": false,
      "inputs": [
        {
          "indexed": false,
          "internalType": "uint8",
          "name": "gameId",
          "type": "uint8"
        },
        {
          "indexed": false,
          "internalType": "address",
          "name": "target",
          "type": "address"
        },
        {
          "indexed": false,
          "internalType": "uint8",
          "name": "col",
          "type": "uint8"
        },
        {
          "indexed": false,
          "internalType": "uint8",
          "name": "row",
          "type": "uint8"
        },
        {
          "indexed": false,
          "internalType": "address",
          "name": "tx_sender",
          "type": "address"
        }
      ],
      "name": "ShotTorpedo",
      "type": "event"
    },
    {
      "anonymous": false,
      "inputs": [
        {
          "indexed": false,
          "internalType": "uint8",
          "name": "gameId",
          "type": "uint8"
        },
        {
          "indexed": false,
          "internalType": "address",
          "name": "accused",
          "type": "address"
        },
        {
          "indexed": false,
          "internalType": "uint256",
          "name": "time",
          "type": "uint256"
        },
        {
          "indexed": false,
          "internalType": "address",
          "name": "tx_sender",
          "type": "address"
        }
      ],
      "name": "SubmitAccuse",
      "type": "event"
    },
    {
      "anonymous": false,
      "inputs": [
        {
          "indexed": false,
          "internalType": "uint8",
          "name": "gameId",
          "type": "uint8"
        },
        {
          "indexed": false,
          "internalType": "bytes32",
          "name": "merkle_root",
          "type": "bytes32"
        },
        {
          "indexed": false,
          "internalType": "address",
          "name": "creator",
          "type": "address"
        }
      ],
      "name": "SubmitMerkleRoot",
      "type": "event"
    },
    {
      "anonymous": false,
      "inputs": [
        {
          "indexed": false,
          "internalType": "uint8",
          "name": "gameId",
          "type": "uint8"
        },
        {
          "indexed": false,
          "internalType": "address",
          "name": "tx_sender",
          "type": "address"
        },
        {
          "indexed": false,
          "internalType": "bool",
          "name": "cheat",
          "type": "bool"
        },
        {
          "indexed": false,
          "internalType": "address",
          "name": "opposer",
          "type": "address"
        }
      ],
      "name": "ValidCheck",
      "type": "event"
    },
    {
      "anonymous": false,
      "inputs": [
        {
          "indexed": false,
          "internalType": "uint8",
          "name": "gameId",
          "type": "uint8"
        },
        {
          "indexed": false,
          "internalType": "bool",
          "name": "accuse",
          "type": "bool"
        },
        {
          "indexed": false,
          "internalType": "address",
          "name": "tx_sender",
          "type": "address"
        }
      ],
      "name": "VerifyAccuse",
      "type": "event"
    },
    {
      "inputs": [
        {
          "internalType": "uint8",
          "name": "board_size",
          "type": "uint8"
        },
        {
          "internalType": "uint256",
          "name": "deposit",
          "type": "uint256"
        }
      ],
      "name": "createGame",
      "outputs": [],
      "stateMutability": "payable",
      "type": "function",
      "payable": true
    },
    {
      "inputs": [
        {
          "internalType": "uint8",
          "name": "gameId",
          "type": "uint8"
        }
      ],
      "name": "deleteGame",
      "outputs": [],
      "stateMutability": "nonpayable",
      "type": "function"
    },
    {
      "inputs": [],
      "name": "joinGameRandom",
      "outputs": [],
      "stateMutability": "nonpayable",
      "type": "function"
    },
    {
      "inputs": [
        {
          "internalType": "uint8",
          "name": "gameId",
          "type": "uint8"
        }
      ],
      "name": "joinGameId",
      "outputs": [],
      "stateMutability": "nonpayable",
      "type": "function"
    },
    {
      "inputs": [
        {
          "internalType": "uint8",
          "name": "gameId",
          "type": "uint8"
        },
        {
          "internalType": "uint256",
          "name": "new_deposit",
          "type": "uint256"
        }
      ],
      "name": "proposeDeposit",
      "outputs": [],
      "stateMutability": "nonpayable",
      "type": "function"
    },
    {
      "inputs": [
        {
          "internalType": "uint8",
          "name": "gameId",
          "type": "uint8"
        }
      ],
      "name": "changeDeposit",
      "outputs": [],
      "stateMutability": "payable",
      "type": "function",
      "payable": true
    },
    {
      "inputs": [
        {
          "internalType": "uint8",
          "name": "gameId",
          "type": "uint8"
        }
      ],
      "name": "payDeposit",
      "outputs": [],
      "stateMutability": "payable",
      "type": "function",
      "payable": true
    },
    {
      "inputs": [
        {
          "internalType": "uint8",
          "name": "gameId",
          "type": "uint8"
        },
        {
          "internalType": "bytes32",
          "name": "merkle_root",
          "type": "bytes32"
        }
      ],
      "name": "submitMerkleRoot",
      "outputs": [],
      "stateMutability": "nonpayable",
      "type": "function"
    },
    {
      "inputs": [
        {
          "internalType": "uint8",
          "name": "gameId",
          "type": "uint8"
        },
        {
          "internalType": "uint8",
          "name": "col",
          "type": "uint8"
        },
        {
          "internalType": "uint8",
          "name": "row",
          "type": "uint8"
        }
      ],
      "name": "shotTorpedo",
      "outputs": [],
      "stateMutability": "nonpayable",
      "type": "function"
    },
    {
      "inputs": [
        {
          "internalType": "uint8",
          "name": "gameId",
          "type": "uint8"
        },
        {
          "internalType": "uint8",
          "name": "col",
          "type": "uint8"
        },
        {
          "internalType": "uint8",
          "name": "row",
          "type": "uint8"
        },
        {
          "internalType": "bool",
          "name": "result",
          "type": "bool"
        },
        {
          "internalType": "bytes32",
          "name": "computed_hash",
          "type": "bytes32"
        },
        {
          "internalType": "bytes32[]",
          "name": "merkle_proof",
          "type": "bytes32[]"
        }
      ],
      "name": "shotResult",
      "outputs": [],
      "stateMutability": "payable",
      "type": "function",
      "payable": true
    },
    {
      "inputs": [
        {
          "internalType": "uint8",
          "name": "gameId",
          "type": "uint8"
        }
      ],
      "name": "submitAccuse",
      "outputs": [],
      "stateMutability": "nonpayable",
      "type": "function"
    },
    {
      "inputs": [
        {
          "internalType": "uint8",
          "name": "gameId",
          "type": "uint8"
        }
      ],
      "name": "verifyAccuse",
      "outputs": [],
      "stateMutability": "payable",
      "type": "function",
      "payable": true
    },
    {
      "inputs": [
        {
          "internalType": "uint8",
          "name": "gameId",
          "type": "uint8"
        }
      ],
      "name": "removeAccuse",
      "outputs": [],
      "stateMutability": "nonpayable",
      "type": "function"
    },
    {
      "inputs": [
        {
          "internalType": "uint8",
          "name": "gameId",
          "type": "uint8"
        },
        {
          "internalType": "uint256[]",
          "name": "indexes",
          "type": "uint256[]"
        },
        {
          "internalType": "uint256[]",
          "name": "values",
          "type": "uint256[]"
        },
        {
          "internalType": "uint256[]",
          "name": "seeds",
          "type": "uint256[]"
        },
        {
          "internalType": "bytes32[]",
          "name": "merkle_proofs",
          "type": "bytes32[]"
        }
      ],
      "name": "verifyEndGame",
      "outputs": [],
      "stateMutability": "nonpayable",
      "type": "function"
    },
    {
      "inputs": [
        {
          "internalType": "uint8",
          "name": "gameId",
          "type": "uint8"
        },
        {
          "internalType": "address",
          "name": "shooter",
          "type": "address"
        }
      ],
      "name": "endGameCheater",
      "outputs": [],
      "stateMutability": "payable",
      "type": "function",
      "payable": true
    },
    {
      "inputs": [
        {
          "internalType": "uint8",
          "name": "gameId",
          "type": "uint8"
        },
        {
          "internalType": "address",
          "name": "receiver",
          "type": "address"
        }
      ],
      "name": "transactionEndGame",
      "outputs": [],
      "stateMutability": "payable",
      "type": "function",
      "payable": true
    }
  ],
  "bytecode": "0x60806040526003805460ff1916905534801561001a57600080fd5b506144938061002a6000396000f3fe6080604052600436106100f35760003560e01c806372e73f801161008a578063c17bfe0a11610059578063c17bfe0a14610221578063e5ea1e8514610234578063e802b62514610254578063e99405cc1461027457600080fd5b806372e73f80146101ae5780637bbc342f146101ce57806393e68e0e146101ee578063b16647ec1461020e57600080fd5b806344f1c6b5116100c657806344f1c6b51461016057806356b29c951461017557806369cd4345146101885780636a7ce02c1461019b57600080fd5b80630f566003146100f8578063185590ca1461010d5780632fd387df1461012057806332d0c14d14610140575b600080fd5b61010b610106366004613f8f565b610294565b005b61010b61011b366004613fb1565b6104e4565b34801561012c57600080fd5b5061010b61013b366004613f8f565b6107b6565b34801561014c57600080fd5b5061010b61015b3660046140e8565b610a43565b34801561016c57600080fd5b5061010b610fe7565b61010b610183366004613f8f565b61129f565b61010b610196366004613fb1565b6114f3565b61010b6101a93660046141a6565b611755565b3480156101ba57600080fd5b5061010b6101c93660046141a6565b6120e0565b3480156101da57600080fd5b5061010b6101e93660046141a6565b6123b6565b3480156101fa57600080fd5b5061010b610209366004613f8f565b61268c565b61010b61021c3660046141d0565b6128dc565b61010b61022f366004613f8f565b612ffa565b34801561024057600080fd5b5061010b61024f366004613f8f565b613346565b34801561026057600080fd5b5061010b61026f36600461425f565b6135e7565b34801561028057600080fd5b5061010b61028f366004613f8f565b6139a0565b60ff808216600090815260026020526040902054166102f45760405162461bcd60e51b815260206004820152601760248201527624b73b30b634b21033b0b6b29034b232b73a34b334b2b960491b60448201526064015b60405180910390fd5b60ff81166000908152602081905260409020600101546001600160a01b031633146103615760405162461bcd60e51b815260206004820152601f60248201527f596f7520617265206e6f7420706c61796572206f6620746869732067616d650060448201526064016102eb565b60ff811660009081526020819052604090206007015434146103c55760405162461bcd60e51b815260206004820152601760248201527f57726f6e67204554487320746f206a6f696e2067616d6500000000000000000060448201526064016102eb565b60ff8181166000908152602081905260409020600c0154600160a81b90041615156001146104355760405162461bcd60e51b815260206004820152601c60248201527f596f75206861766520616c726561647920706179206465706f7369740000000060448201526064016102eb565b60ff81166000908152602081905260408120600a8101805460ff1916600117905560070180543492906104699084906142b8565b909155505060ff81811660008181526020818152604091829020600c01805460ff60a81b1916908190558251938452600160a81b900490931615159282019290925233918101919091527f9e24a55f9a6f8fd4c4b17c08fa87b287cc16e2277855c2b2d277b25e91afde4a906060015b60405180910390a150565b60ff8083166000908152600260205260409020541661053f5760405162461bcd60e51b815260206004820152601760248201527624b73b30b634b21033b0b6b29034b232b73a34b334b2b960491b60448201526064016102eb565b60ff808316600090815260208190526040902060080154610100900416156105a95760405162461bcd60e51b815260206004820152601e60248201527f54686572652069732061206368656174657220696e207468652067616d65000060448201526064016102eb565b60ff8083166000908152602081905260409020600801541615156001146106125760405162461bcd60e51b815260206004820152601160248201527f47616d65206973206e6f7420656e64656400000000000000000000000000000060448201526064016102eb565b60ff821660009081526020819052604090205461010090046001600160a01b03163314801590610660575060ff82166000908152602081905260409020600101546001600160a01b03163314155b156106c05760405162461bcd60e51b815260206004820152602a60248201527f596f7520617265206e6f742063726561746f72206f7220706c61796572206f6660448201526920746869732067616d6560b01b60648201526084016102eb565b60ff821660009081526020819052604081206008810180546001600160a01b03808616620100000275ffffffffffffffffffffffffffffffffffffffff0000199092169190911790915560078201805493905590546101009004166108fc6107296002846142e6565b6040518115909202916000818181858888f19350505050158015610751573d6000803e3d6000fd5b5060ff83166000908152602081905260409020600101546001600160a01b03166108fc61077f6002846142e6565b6040518115909202916000818181858888f193505050501580156107a7573d6000803e3d6000fd5b506107b183613be5565b505050565b60ff808216600090815260026020526040902054166108115760405162461bcd60e51b815260206004820152601760248201527624b73b30b634b21033b0b6b29034b232b73a34b334b2b960491b60448201526064016102eb565b60ff81166000908152602081905260409020600a015461010090046001600160a01b0316156108825760405162461bcd60e51b815260206004820152601860248201527f41636375736520616c7265616479207375626d6974746564000000000000000060448201526064016102eb565b60ff811660009081526020819052604090205461010090046001600160a01b031633036108fb5760ff811660009081526020819052604090206001810154600a90910180546001600160a01b039092166101000274ffffffffffffffffffffffffffffffffffffffff00199092169190911790556109cc565b60ff81166000908152602081905260409020600101546001600160a01b031633036109715760ff811660009081526020819052604090208054600a909101805474ffffffffffffffffffffffffffffffffffffffff001916610100928390046001600160a01b03169092029190911790556109cc565b60405162461bcd60e51b815260206004820152602a60248201527f596f7520617265206e6f742063726561746f72206f7220706c61796572206f6660448201526920746869732067616d6560b01b60648201526084016102eb565b6109d74360056142b8565b60ff821660008181526020818152604091829020600b8101859055600a0154825193845261010090046001600160a01b0316908301528101919091523360608201527f5fcf9fdef4d42bf32509dd1f55e50994d14577a4752c631fb262c5ff8fdb99f8906080016104d9565b60ff80861660009081526002602052604090205416610a9e5760405162461bcd60e51b815260206004820152601760248201527624b73b30b634b21033b0b6b29034b232b73a34b334b2b960491b60448201526064016102eb565b60ff808616600090815260208190526040902060080154161515600114610b075760405162461bcd60e51b815260206004820152601360248201527f47616d652069736e27742066696e69736865640000000000000000000000000060448201526064016102eb565b60ff80861660009081526020819052604090206008015461010090041615610b715760405162461bcd60e51b815260206004820152601460248201527f536f6d656f6e652069732061206368656174657200000000000000000000000060448201526064016102eb565b60ff851660009081526020819052604081205481908190819061010090046001600160a01b03163303610bcd5760ff89166000908152602081905260409020600181015460029091015494506001600160a01b03169250610c1f565b60ff89166000908152602081905260409020600101546001600160a01b031633036109715760ff891660009081526020819052604090208054600390910154945061010090046001600160a01b031692505b60ff808a1660009081526020819052604090206006015416600203610c4657506002610c71565b60ff808a1660009081526020819052604090206006015416600403610c6d57506004610c71565b5060065b60005b87518160ff161015610ec5576000878260ff1681518110610c9757610c976142fa565b6020026020010151898360ff1681518110610cb457610cb46142fa565b6020026020010151610cc691906142b8565b905080604051602001610cdb91815260200190565b60405160208183030381529060405280519060200120935060008383610d019190614310565b90505b83610d10846001614339565b610d1a9190614310565b60ff168160ff161015610e585760028b8460ff1681518110610d3e57610d3e6142fa565b6020026020010151610d50919061435e565b600003610dac5784888260ff1681518110610d6d57610d6d6142fa565b6020026020010151604051602001610d8f929190918252602082015260400190565b604051602081830303815290604052805190602001209450610dfd565b878160ff1681518110610dc157610dc16142fa565b602002602001015185604051602001610de4929190918252602082015260400190565b6040516020818303038152906040528051906020012094505b60028b8460ff1681518110610e1457610e146142fa565b6020026020010151610e2691906142e6565b8b8460ff1681518110610e3b57610e3b6142fa565b602090810291909101015280610e5081614372565b915050610d04565b50858414610eb25760ff8b16600090815260208190526040902060080180546001600160a01b03871662010000027fffffffffffffffffffff000000000000000000000000000000000000000000ff909116176101001790555b5080610ebd81614372565b915050610c74565b5060ff808a166000908152602081905260409020600101548851600160a81b90910490911614610f415760ff8916600090815260208190526040902060080180546001600160a01b03851662010000027fffffffffffffffffffff000000000000000000000000000000000000000000ff909116176101001790555b60ff89811660008181526020818152604091829020600801805475ffffffffffffffffffffffffffffffffffffffff0000191633620100008102919091179182905583519485529184019190915261010090049092161515918101919091526001600160a01b03841660608201527fe2a5a1eaf827752d56df9f2117d1dca639660012bbd5ab80ee7f63e8803e484d9060800160405180910390a1505050505050505050565b6001546110365760405162461bcd60e51b815260206004820152601b60248201527f5468657265206172656e277420616c72656164792067616d65732e000000000060448201526064016102eb565b600080805b60015460ff8216101561110a5760008060018360ff1681548110611061576110616142fa565b60009182526020808320818304015460ff601f9093166101000a90048216845283019390935260409091019020600190810154740100000000000000000000000000000000000000009004909116151590036110f85760018160ff16815481106110cd576110cd6142fa565b90600052602060002090602091828204019190069054906101000a900460ff1692506001915061110a565b8061110281614372565b91505061103b565b50806111585760405162461bcd60e51b815260206004820181905260248201527f4e6f20617661696c61626c652067616d652061742074686973206d6f6d656e7460448201526064016102eb565b60ff821660009081526020819052604090205461010090046001600160a01b031633036111c75760405162461bcd60e51b815260206004820181905260248201527f596f7520617265207468652063726561746f72206f6620746869732067616d6560448201526064016102eb565b60ff828116600090815260208181526040918290206001810180547fffffffffffffffffffffff00000000000000000000000000000000000000000016337fffffffffffffffffffffff00ffffffffffffffffffffffffffffffffffffffff811691909117918290558254600684015460079094015486519188168252600160a81b9093048716948101949094529190941692820192909252606081019290925260808201527f4e3e368b15094e34a47ab4829cac49c97163841c709306020649ea625c184f589060a0015b60405180910390a15050565b60ff808216600090815260026020526040902054166112fa5760405162461bcd60e51b815260206004820152601760248201527624b73b30b634b21033b0b6b29034b232b73a34b334b2b960491b60448201526064016102eb565b60ff81166000908152602081905260409020600a015461010090046001600160a01b031661136a5760405162461bcd60e51b815260206004820152601860248201527f41636375736520776173206e6f74207375626d6974746564000000000000000060448201526064016102eb565b60ff811660009081526020819052604090205461010090046001600160a01b031633148015906113b8575060ff81166000908152602081905260409020600101546001600160a01b03163314155b156114185760405162461bcd60e51b815260206004820152602a60248201527f596f7520617265206e6f742063726561746f72206f7220706c61796572206f6660448201526920746869732067616d6560b01b60648201526084016102eb565b60ff81166000908152602081905260409020600b015443106114975760ff8116600090815260208190526040808220600701549051339282156108fc02929190818181858888f19350505050158015611475573d6000803e3d6000fd5b5060ff81166000908152602081905260409020600c01805460ff191660011790555b60ff81811660008181526020818152604091829020600c0154825193845290931615159282019290925233918101919091527fe8f566abb427abb0a7d58abc46559a9a1fb7c2eb6e3255ca57b353c5151d1e5e906060016104d9565b60ff8083166000908152600260205260409020541661154e5760405162461bcd60e51b815260206004820152601760248201527624b73b30b634b21033b0b6b29034b232b73a34b334b2b960491b60448201526064016102eb565b60ff80831660009081526020819052604090206008015461010090041615156001146115bc5760405162461bcd60e51b815260206004820152601260248201527f4e6f206368656174657220696e2067616d65000000000000000000000000000060448201526064016102eb565b60ff8083166000908152602081905260409020600801541615156001146116255760405162461bcd60e51b815260206004820152601160248201527f47616d65206973206e6f7420656e64656400000000000000000000000000000060448201526064016102eb565b60ff821660009081526020819052604090205461010090046001600160a01b03163314801590611673575060ff82166000908152602081905260409020600101546001600160a01b03163314155b156116d35760405162461bcd60e51b815260206004820152602a60248201527f596f7520617265206e6f742063726561746f72206f7220706c61796572206f6660448201526920746869732067616d6560b01b60648201526084016102eb565b60ff821660009081526020819052604080822060088101805475ffffffffffffffffffffffffffffffffffffffff00001916620100006001600160a01b0387169081029190911790915560079091018054908490559151919290916108fc84150291849190818181858888f193505050501580156107a7573d6000803e3d6000fd5b61175e82613d3a565b6117aa5760405162461bcd60e51b815260206004820152601460248201527f556e636f727265637420626f6172642073697a6500000000000000000000000060448201526064016102eb565b8034146117f95760405162461bcd60e51b815260206004820152601960248201527f57726f6e67204554487320746f206372656174652067616d650000000000000060448201526064016102eb565b6001546101001161184c5760405162461bcd60e51b815260206004820152601460248201527f47616d65732073706163652069732066756c6c2e00000000000000000000000060448201526064016102eb565b6003805460ff1690600061185f83614372565b91906101000a81548160ff021916908360ff16021790555050600082836118869190614310565b60ff16905060008167ffffffffffffffff8111156118a6576118a6613ff4565b6040519080825280602002602001820160405280156118cf578160200160208202803683370190505b50905060005b828160ff16101561191b576000828260ff16815181106118f7576118f76142fa565b60ff909216602092830291909101909101528061191381614372565b9150506118d5565b5060005b60015460ff821610156119ae576003546001805460ff92831692841690811061194a5761194a6142fa565b60009182526020918290209181049091015460ff601f9092166101000a9004160361199c576003805460ff1690600061198283614372565b91906101000a81548160ff021916908360ff160217905550505b806119a681614372565b91505061191f565b506001600360009054906101000a900460ff1690806001815401808255809150506001900390600052602060002090602091828204019190069091909190916101000a81548160ff021916908360ff160217905550604051806102e00160405280600360009054906101000a900460ff1660ff168152602001336001600160a01b0316815260200160006001600160a01b03168152602001600115158152602001600060ff168152602001600060ff168152602001600060ff1681526020016000801b81526020016000801b81526020018281526020018281526020018560ff16815260200134815260200160001515815260200160001515815260200160006001600160a01b031681526020016000815260200160001515815260200160006001600160a01b031681526020016000815260200160001515815260200160006001600160a01b0316815260200160011515815250600080600360009054906101000a900460ff1660ff1660ff16815260200190815260200160002060008201518160000160006101000a81548160ff021916908360ff16021790555060208201518160000160016101000a8154816001600160a01b0302191690836001600160a01b0316021790555060408201518160010160006101000a8154816001600160a01b0302191690836001600160a01b0316021790555060608201518160010160146101000a81548160ff02191690831515021790555060808201518160010160156101000a81548160ff021916908360ff16021790555060a08201518160010160166101000a81548160ff021916908360ff16021790555060c08201518160010160176101000a81548160ff021916908360ff16021790555060e082015181600201556101008201518160030155610120820151816004019080519060200190611c5a929190613ebe565b506101408201518051611c77916005840191602090910190613ebe565b5061016082015160068201805460ff1990811660ff9384161790915561018084015160078401556101a08401516008840180546101c08701516101e088015161ffff199092169315157fffffffffffffffffffffffffffffffffffffffffffffffffffffffffffff00ff169390931761010093151584021775ffffffffffffffffffffffffffffffffffffffff00001916620100006001600160a01b0392831602179091556102008601516009860155610220860151600a860180546102408901517fffffffffffffffffffffff00000000000000000000000000000000000000000091821693151574ffffffffffffffffffffffffffffffffffffffff001990811694909417908516860217909155610260880151600b880155610280880151600c90970180546102a08a01516102c0909a0151921697151590921696909617969091169091029490941760ff60a81b1916600160a81b93151593909302929092179092556003548216600090815260026020819052604090912080549092166001179091559085169003611ed1576003805460ff9081166000908152602081905260408082206001908101805460ff60a81b19167502000000000000000000000000000000000000000000179055845484168352818320810180547fffffffffffffffff00ffffffffffffffffffffffffffffffffffffffffffffff8116600160a81b918290048716600160b81b021790915594548416835291200180547fffffffffffffffffff00ffffffffffffffffffffffffffffffffffffffffffff8116939004909116600160b01b02919091179055612077565b8360ff16600403611fa6576003805460ff9081166000908152602081905260408082206001908101805460ff60a81b19167507000000000000000000000000000000000000000000179055845484168352818320810180547fffffffffffffffff00ffffffffffffffffffffffffffffffffffffffffffffff8116600160a81b918290048716600160b81b021790915594548416835291200180547fffffffffffffffffff00ffffffffffffffffffffffffffffffffffffffffffff8116939004909116600160b01b02919091179055612077565b8360ff16600803612077576003805460ff9081166000908152602081905260408082206001908101805460ff60a81b19167517000000000000000000000000000000000000000000179055845484168352818320810180547fffffffffffffffff00ffffffffffffffffffffffffffffffffffffffffffffff8116600160a81b918290048716600160b81b021790915594548416835291200180547fffffffffffffffffff00ffffffffffffffffffffffffffffffffffffffffffff8116939004909116600160b01b029190911790555b60035460ff90811660008181526020818152604091829020600101548251938452600160a81b900490931692820192909252338183015290517fc4132c6824dd255ad7bd430d9c176b717537588c498313107f875e7be6a33b8b9181900360600190a150505050565b60ff8083166000908152600260205260409020541661213b5760405162461bcd60e51b815260206004820152601760248201527624b73b30b634b21033b0b6b29034b232b73a34b334b2b960491b60448201526064016102eb565b600081900361218c5760405162461bcd60e51b815260206004820152601360248201527f496e76616c6964206d65726b6c6520726f6f740000000000000000000000000060448201526064016102eb565b60ff821660009081526020819052604090205461010090046001600160a01b031633036122595760ff82166000908152602081905260409020600201541561223c5760405162461bcd60e51b815260206004820152602560248201527f4d65726b6c6520526f6f74206f662063726561746f7220616c7265616479207360448201527f746f72656400000000000000000000000000000000000000000000000000000060648201526084016102eb565b60ff8216600090815260208190526040902060020181905561235a565b60ff82166000908152602081905260409020600101546001600160a01b031633036109715760ff8216600090815260208190526040902060030154156123065760405162461bcd60e51b8152602060048201526024808201527f4d65726b6c6520526f6f74206f6620706c6179657220616c726561647920737460448201527f6f7265640000000000000000000000000000000000000000000000000000000060648201526084016102eb565b60ff82166000908152602081905260409020600381018290558054600c909101805474ffffffffffffffffffffffffffffffffffffffff001916610100928390046001600160a01b03169092029190911790555b60ff82166000818152602081815260409182902054825193845290830184905261010090046001600160a01b0316908201527f8d9f8ecea0dcd8d55b2c9f3a507ee1d4501069e99eacdc59551754192c320c8a90606001611293565b60ff808316600090815260026020526040902054166124115760405162461bcd60e51b815260206004820152601760248201527624b73b30b634b21033b0b6b29034b232b73a34b334b2b960491b60448201526064016102eb565b60ff82166000908152602081905260409020600101546001600160a01b031633146124a45760405162461bcd60e51b815260206004820152602160248201527f596f7520617265206e6f74206120706c6179657220696e20746869732067616d60448201527f650000000000000000000000000000000000000000000000000000000000000060648201526084016102eb565b8060000361251a5760405162461bcd60e51b815260206004820152602c60248201527f53656c656374206120706f73697469766520616d6f756e74206f66204554487360448201527f20666f72206465706f736974000000000000000000000000000000000000000060648201526084016102eb565b60ff821660009081526020819052604090206007015481036125a45760405162461bcd60e51b815260206004820152603960248201527f43686f6f7365206120646966666572656e7420616d6f756e74206f662045544860448201527f7320666f72206465706f736974207468616e206265666f72650000000000000060648201526084016102eb565b60ff8083166000908152602081905260409020600a0154161561262f5760405162461bcd60e51b815260206004820152602660248201527f43726561746f722068617320616c72656164792061636365707465642061207060448201527f726f706f7365000000000000000000000000000000000000000000000000000060648201526084016102eb565b60ff821660008181526020818152604091829020600981018590556007015482519384529083015281018290523360608201527f3b8eca6cb306a5024599e6abebea2dec5662c7c0c30ea22ce8ce36885d26f5d890608001611293565b60ff808216600090815260026020526040902054166126e75760405162461bcd60e51b815260206004820152601760248201527624b73b30b634b21033b0b6b29034b232b73a34b334b2b960491b60448201526064016102eb565b60ff81166000908152602081905260409020600a015461010090046001600160a01b03166127575760405162461bcd60e51b815260206004820152601860248201527f41636375736520776173206e6f74207375626d6974746564000000000000000060448201526064016102eb565b60ff81166000908152602081905260409020600a015461010090046001600160a01b031633146127c95760405162461bcd60e51b815260206004820152601360248201527f596f7520617265206e6f7420616363757365640000000000000000000000000060448201526064016102eb565b60ff811660009081526020819052604090205461010090046001600160a01b03163314801590612817575060ff81166000908152602081905260409020600101546001600160a01b03163314155b156128775760405162461bcd60e51b815260206004820152602a60248201527f596f7520617265206e6f742063726561746f72206f7220706c61796572206f6660448201526920746869732067616d6560b01b60648201526084016102eb565b60ff811660008181526020818152604091829020600a01805474ffffffffffffffffffffffffffffffffffffffff0019169055815192835233908301527f7f41c19021effeb8c2c0ba79a6d56fa7349e4ea476c16a5413ebaedb3899fae991016104d9565b60ff808716600090815260026020526040902054166129375760405162461bcd60e51b815260206004820152601760248201527624b73b30b634b21033b0b6b29034b232b73a34b334b2b960491b60448201526064016102eb565b60ff808716600090815260208190526040902060080154161561299c5760405162461bcd60e51b815260206004820152600860248201527f456e642047616d6500000000000000000000000000000000000000000000000060448201526064016102eb565b60ff80871660009081526020819052604090206008015461010090041615612a065760405162461bcd60e51b815260206004820181905260248201527f47616d6520656e6465642c20736f6d656f6e652069732061206368656174657260448201526064016102eb565b60ff80871660009081526020819052604081206006015490918791612a2c911687614310565b612a369190614339565b60ff88166000908152602081905260408120549192509061010090046001600160a01b03163303612cce575060ff87166000908152602081905260408120600101546001600160a01b0316905b83518160ff161015612b6957612a9a600284614391565b60ff16600003612af95784848260ff1681518110612aba57612aba6142fa565b6020026020010151604051602001612adc929190918252602082015260400190565b604051602081830303815290604052805190602001209450612b4a565b838160ff1681518110612b0e57612b0e6142fa565b602002602001015185604051602001612b31929190918252602082015260400190565b6040516020818303038152906040528051906020012094505b612b556002846143b3565b925080612b6181614372565b915050612a83565b5060ff88166000908152602081905260409020600201548403612c55578415612c505760ff80891660009081526020819052604090206001908101805491929091601691612bc1918591600160b01b909104166143d5565b82546101009290920a60ff81810219909316918316021790915589811660009081526020819052604090206006810154600193506004909101918a91612c0891168a614310565b612c129190614339565b60ff1681548110612c2557612c256142fa565b90600052602060002090602091828204019190066101000a81548160ff021916908360ff1602179055505b612c81565b60ff88166000908152602081905260409020600801805461ffff1916610101179055612c8188826114f3565b60ff808916600090815260208190526040812060010154600160b01b90049091169003612cc95760ff88166000908152602081905260409020600801805460ff191660011790555b612f5d565b60ff88166000908152602081905260409020600101546001600160a01b03163303610971575060ff871660009081526020819052604081205461010090046001600160a01b0316905b83518160ff161015612dfd57612d2e600284614391565b60ff16600003612d8d5784848260ff1681518110612d4e57612d4e6142fa565b6020026020010151604051602001612d70929190918252602082015260400190565b604051602081830303815290604052805190602001209450612dde565b838160ff1681518110612da257612da26142fa565b602002602001015185604051602001612dc5929190918252602082015260400190565b6040516020818303038152906040528051906020012094505b612de96002846143b3565b925080612df581614372565b915050612d17565b5060ff88166000908152602081905260409020600301548403612ee9578415612ee45760ff80891660009081526020819052604090206001908101805491929091601791612e55918591600160b81b909104166143d5565b82546101009290920a60ff81810219909316918316021790915589811660009081526020819052604090206006810154600193506005909101918a91612e9c91168a614310565b612ea69190614339565b60ff1681548110612eb957612eb96142fa565b90600052602060002090602091828204019190066101000a81548160ff021916908360ff1602179055505b612f15565b60ff88166000908152602081905260409020600801805461ffff1916610101179055612f1588826114f3565b60ff808916600090815260208190526040812060010154600160b81b90049091169003612cc95760ff88166000908152602081905260409020600801805460ff191660011790555b60ff88811660008181526020818152604091829020600801548251938452891515918401919091528a84168383015289841660608401528084161515608084015261010090819004909316151560a08301523360c08301526001600160a01b03841660e0830152517f8365b18b205165bef7a7fad77f50ac9b3120dcaae83ce170f158ee7726735b86929181900390910190a15050505050505050565b60ff808216600090815260026020526040902054166130555760405162461bcd60e51b815260206004820152601760248201527624b73b30b634b21033b0b6b29034b232b73a34b334b2b960491b60448201526064016102eb565b60ff811660009081526020819052604090205461010090046001600160a01b031633146130ea5760405162461bcd60e51b815260206004820152602860248201527f4f6e6c79207468652067616d652063726561746f722063616e206368616e676560448201527f206465706f73697400000000000000000000000000000000000000000000000060648201526084016102eb565b60ff81166000908152602081905260409020600781015460099091015411156131fe5760ff81166000908152602081905260409020600781015460099091015461313491906143f8565b34146131ce5760405162461bcd60e51b815260206004820152604860248201527f546865206e6577206465706f7369742073756d6d656420746f2074686520707260448201527f6576696f7573206973206e6f7420657175616c20746f207468652070726f706f60648201527f736564206f6e652e000000000000000000000000000000000000000000000000608482015260a4016102eb565b60ff8116600090815260208190526040812060070180543492906131f39084906142b8565b909155506132e79050565b34156132725760405162461bcd60e51b815260206004820152602660248201527f4572726f7220776974682070726f706f736520686967686572207468616e206460448201527f65706f736974000000000000000000000000000000000000000000000000000060648201526084016102eb565b60ff81166000908152602081905260408120600981015460079091015461329991906143f8565b60ff8316600090815260208190526040808220600981015460079091015551919250339183156108fc0291849190818181858888f193505050501580156132e4573d6000803e3d6000fd5b50505b60ff811660008181526020818152604091829020600a8101805460ff191660011790556007015482519384529083015233908201527fc747d43508c87cba1a16998eaa7d6b9c47e98929f0bc0f605201c045cf8f2371906060016104d9565b60ff808216600090815260026020526040902054166133a15760405162461bcd60e51b815260206004820152601760248201527624b73b30b634b21033b0b6b29034b232b73a34b334b2b960491b60448201526064016102eb565b60ff80821660009081526020819052604090206001908101547401000000000000000000000000000000000000000090049091161515146134375760405162461bcd60e51b815260206004820152602a60248201527f54686572652061726520616c72656164792074776f20706c617965727320696e60448201526920746869732067616d6560b01b60648201526084016102eb565b60ff8181166000908152602081905260409020600c0154600160a81b90041615156001146134a75760405162461bcd60e51b815260206004820152601f60248201527f47616d652066756c6c2c2063686f6f736520616e6f746865722067616d652e0060448201526064016102eb565b60ff8116600090815260208190526040902054336101009091046001600160a01b0316036135175760405162461bcd60e51b815260206004820152601f60248201527f596f7520617265207468652063726561746f72206f66207468652067616d650060448201526064016102eb565b60ff818116600090815260208181526040918290206001810180547fffffffffffffffffffffff00000000000000000000000000000000000000000016337fffffffffffffffffffffff00ffffffffffffffffffffffffffffffffffffffff811691909117918290558254600684015460079094015486519188168252600160a81b9093048716948101949094529190941692820192909252606081019290925260808201527f4e3e368b15094e34a47ab4829cac49c97163841c709306020649ea625c184f589060a0016104d9565b60ff808416600090815260026020526040902054166136425760405162461bcd60e51b815260206004820152601760248201527624b73b30b634b21033b0b6b29034b232b73a34b334b2b960491b60448201526064016102eb565b60ff83166000908152602081905260409020600c015461010090046001600160a01b03166136d85760405162461bcd60e51b815260206004820152602a60248201527f506c6179657220686173206e6f74207375626d6974746564206d65726b6c652060448201527f726f6f742e20576169740000000000000000000000000000000000000000000060648201526084016102eb565b60ff83166000908152602081905260409020600c015461010090046001600160a01b0316331461376f5760405162461bcd60e51b8152602060048201526024808201527f596f752063616e27742073686f742074776f20636f6e7365637574697665207460448201527f696d65730000000000000000000000000000000000000000000000000000000060648201526084016102eb565b60ff80841660009081526020819052604090206008015416156137d45760405162461bcd60e51b815260206004820152600860248201527f456e642047616d6500000000000000000000000000000000000000000000000060448201526064016102eb565b60ff8084166000908152602081905260409020600801546101009004161561383e5760405162461bcd60e51b815260206004820181905260248201527f47616d6520656e6465642c20736f6d656f6e652069732061206368656174657260448201526064016102eb565b60ff831660009081526020819052604090205461010090046001600160a01b031633036138b75760ff831660009081526020819052604090206001810154600c90910180546001600160a01b039092166101000274ffffffffffffffffffffffffffffffffffffffff0019909216919091179055613929565b60ff83166000908152602081905260409020600101546001600160a01b031633036109715760ff831660009081526020819052604090208054600c909101805474ffffffffffffffffffffffffffffffffffffffff001916610100928390046001600160a01b03169092029190911790555b60ff83811660008181526020818152604091829020600c0154825193845261010090046001600160a01b0316908301528483169082015290821660608201523360808201527f9017d4f6659b55644bf11f22440d96ba9af0d279e4b613844d81056bdb78904b9060a00160405180910390a1505050565b60ff808216600090815260026020526040902054166139fb5760405162461bcd60e51b815260206004820152601760248201527624b73b30b634b21033b0b6b29034b232b73a34b334b2b960491b60448201526064016102eb565b60ff811660009081526020819052604090205461010090046001600160a01b03163314613a8f5760405162461bcd60e51b8152602060048201526024808201527f4f6e6c792063726561746f722063616e2064656c657465206869732f6865722060448201527f67616d650000000000000000000000000000000000000000000000000000000060648201526084016102eb565b60ff8082166000908152602081905260409020600a01541615613b405760405162461bcd60e51b815260206004820152604160248201527f546865726520697320616e2061677265656d656e742077697468206120706c6160448201527f7965722c20796f752063616e6e6f742064656c65746520746869732067616d6560648201527f2e00000000000000000000000000000000000000000000000000000000000000608482015260a4016102eb565b60ff811660009081526020819052604080822060070180549083905590519091339183156108fc0291849190818181858888f19350505050158015613b89573d6000803e3d6000fd5b50613b95600183613d65565b60ff8216600081815260026020908152604091829020805460ff19169055815192835233908301527f3de1c920cd72df2229b3a692e32c4b1288b2508bc3d1adae2ebdb621a9b9ffc79101611293565b60ff80821660009081526002602052604090205416613c405760405162461bcd60e51b815260206004820152601760248201527624b73b30b634b21033b0b6b29034b232b73a34b334b2b960491b60448201526064016102eb565b60ff81166000908152602081905260409020600801546201000090046001600160a01b0316613cb15760405162461bcd60e51b815260206004820152601760248201527f4e6f2077696e6e657220666f7220746869732067616d6500000000000000000060448201526064016102eb565b60ff811660009081526020819052604090206007015415613d145760405162461bcd60e51b815260206004820152601460248201527f4465706f736974207761736e277420617420302e00000000000000000000000060448201526064016102eb565b613d1f600182613d65565b60ff166000908152600260205260409020805460ff19169055565b60008160ff1660021480613d5157508160ff166004145b80613d5f57508160ff166008145b92915050565b6000805b8354613d77906001906143f8565b8160ff161015613dd857838160ff1681548110613d9657613d966142fa565b90600052602060002090602091828204019190069054906101000a900460ff1660ff168360ff1603613dc6578091505b80613dd081614372565b915050613d69565b5060ff81165b8354613dec906001906143f8565b811015613e7e5783613dff8260016142b8565b81548110613e0f57613e0f6142fa565b90600052602060002090602091828204019190069054906101000a900460ff16848281548110613e4157613e416142fa565b90600052602060002090602091828204019190066101000a81548160ff021916908360ff1602179055508080613e769061440f565b915050613dde565b5082805480613e8f57613e8f614447565b60019003818190600052602060002090602091828204019190066101000a81549060ff02191690559055505050565b82805482825590600052602060002090601f01602090048101928215613f545791602002820160005b83821115613f2557835183826101000a81548160ff021916908360ff1602179055509260200192600101602081600001049283019260010302613ee7565b8015613f525782816101000a81549060ff0219169055600101602081600001049283019260010302613f25565b505b50613f60929150613f64565b5090565b5b80821115613f605760008155600101613f65565b803560ff81168114613f8a57600080fd5b919050565b600060208284031215613fa157600080fd5b613faa82613f79565b9392505050565b60008060408385031215613fc457600080fd5b613fcd83613f79565b915060208301356001600160a01b0381168114613fe957600080fd5b809150509250929050565b634e487b7160e01b600052604160045260246000fd5b604051601f82017fffffffffffffffffffffffffffffffffffffffffffffffffffffffffffffffe016810167ffffffffffffffff8111828210171561405157614051613ff4565b604052919050565b600067ffffffffffffffff82111561407357614073613ff4565b5060051b60200190565b600082601f83011261408e57600080fd5b813560206140a361409e83614059565b61400a565b82815260059290921b840181019181810190868411156140c257600080fd5b8286015b848110156140dd57803583529183019183016140c6565b509695505050505050565b600080600080600060a0868803121561410057600080fd5b61410986613f79565b9450602086013567ffffffffffffffff8082111561412657600080fd5b61413289838a0161407d565b9550604088013591508082111561414857600080fd5b61415489838a0161407d565b9450606088013591508082111561416a57600080fd5b61417689838a0161407d565b9350608088013591508082111561418c57600080fd5b506141998882890161407d565b9150509295509295909350565b600080604083850312156141b957600080fd5b6141c283613f79565b946020939093013593505050565b60008060008060008060c087890312156141e957600080fd5b6141f287613f79565b955061420060208801613f79565b945061420e60408801613f79565b93506060870135801515811461422357600080fd5b92506080870135915060a087013567ffffffffffffffff81111561424657600080fd5b61425289828a0161407d565b9150509295509295509295565b60008060006060848603121561427457600080fd5b61427d84613f79565b925061428b60208501613f79565b915061429960408501613f79565b90509250925092565b634e487b7160e01b600052601160045260246000fd5b600082198211156142cb576142cb6142a2565b500190565b634e487b7160e01b600052601260045260246000fd5b6000826142f5576142f56142d0565b500490565b634e487b7160e01b600052603260045260246000fd5b600060ff821660ff84168160ff0481118215151615614331576143316142a2565b029392505050565b600060ff821660ff84168060ff03821115614356576143566142a2565b019392505050565b60008261436d5761436d6142d0565b500690565b600060ff821660ff8103614388576143886142a2565b60010192915050565b600060ff8316806143a4576143a46142d0565b8060ff84160691505092915050565b600060ff8316806143c6576143c66142d0565b8060ff84160491505092915050565b600060ff821660ff8416808210156143ef576143ef6142a2565b90039392505050565b60008282101561440a5761440a6142a2565b500390565b60007fffffffffffffffffffffffffffffffffffffffffffffffffffffffffffffffff8203614440576144406142a2565b5060010190565b634e487b7160e01b600052603160045260246000fdfea2646970667358221220b7086eb1fe7b925d3ec97aa76f8e82c02af8cf92e895a6fbf7e2753bc3d1c01964736f6c634300080d0033",
  "immutableReferences": {},
  "source": "// SPDX-License-Identifier: MIT \r\npragma  solidity >=0.4.22 <0.9.0;\r\n\r\n\r\n\r\ncontract BattleShip {\r\n\r\n    struct infoGame{\r\n        uint8 gameId;\r\n        address creator;\r\n        address player;\r\n        bool free;\r\n        uint8 counter_ships;\r\n        uint8 counter_ships_creator;\r\n        uint8 counter_ships_player;\r\n        bytes32 merkle_root_creator;\r\n        bytes32 merkle_root_player;\r\n        uint8[] creator_board;\r\n        uint8[] player_board;\r\n        uint8 board_size;\r\n        uint256 deposit;\r\n        bool end_game;\r\n        bool cheat;\r\n        address winner;\r\n        uint256 proposedDeposit;\r\n        bool agreement; //Phase 2.1 lock --> on true\r\n        address accused; //Phase 6 lock\r\n        uint256 acc_time;\r\n        bool accuse;\r\n        address target_address; //Phase 4 --> block shot turn.\r\n        bool available; //Phase 3 lock --> on false\r\n    }\r\n\r\n    event SubmitMerkleRoot(uint8 gameId, bytes32 merkle_root, address creator);\r\n    event NewGame(uint8 gameId, uint8 counter_ships, address tx_sender);\r\n    event ProposedDeposit(uint8 gameId, uint256 actual_amount, uint256 new_amount, address tx_sender);\r\n    event ChangeDeposit(uint8 gameId, uint256 eths, address tx_sender);\r\n    event PaidDeposit(uint8 gameId, bool availability, address tx_sender);\r\n    event SelectGame(uint8 gameId, uint8 counter_ships, uint8 board_size, uint256 deposit, address tx_sender);\r\n    event ShotTorpedo(uint8 gameId, address target, uint8 col, uint8 row, address tx_sender);\r\n    event ShotResult(uint8 gameId, bool result, uint8 col, uint8 row, bool end_game, bool cheater, address tx_sender, address shooter_address);\r\n    event SubmitAccuse(uint8 gameId, address accused, uint256 time, address tx_sender);\r\n    event DeleteGame(uint8 gameId, address tx_sender);\r\n    event VerifyAccuse(uint8 gameId, bool accuse, address tx_sender);\r\n    event RemoveAccuse(uint8 gameId, address tx_sender);\r\n    event ValidCheck(uint8 gameId, address tx_sender, bool cheat, address opposer);\r\n\r\n\r\n    mapping (uint8 => infoGame) games;\r\n    uint8[] gameIds;     //array with all gameIds created\r\n    mapping (uint8 => bool) valid_ids;\r\n    uint8 id = 0;\r\n\r\n    constructor(){}\r\n\r\n    /*\r\n    * Admitted board size are 4, 8. (reference for 4x4, 8x8)\r\n    */\r\n    function checkBoard(uint8 size) private pure returns (bool){\r\n        return (size == 2 || size == 4 || size == 8);\r\n    }\r\n\r\n    /*\r\n        Phase 1:\r\n            - board of correct size\r\n            - Eths must be equal to deposit\r\n            - Until 256 games at the same time\r\n\r\n            Vulnerabilities:\r\n            - One single creator can have 255 games opened --> DOS attack\r\n    */ \r\n    function createGame(uint8 board_size, uint256 deposit) public payable{\r\n\r\n        require(checkBoard(board_size), \"Uncorrect board size\");\r\n        require(msg.value == deposit, \"Wrong ETHs to create game\");\r\n        require(gameIds.length < 256, \"Games space is full.\");\r\n        id++;\r\n        uint256 len = board_size*board_size;\r\n\r\n        uint8[] memory arr = new uint8[](len);\r\n\r\n        for (uint8 i = 0; i < len; i++) {\r\n            arr[i] = 0;\r\n        }\r\n\r\n        for(uint8 i = 0; i < gameIds.length; i++) {\r\n            if(gameIds[i] == id) {\r\n                id++;\r\n            }\r\n        }\r\n\r\n        gameIds.push(id);\r\n\r\n        games[id] = infoGame (id, msg.sender, address(0), true, 0, 0, 0, 0, 0, arr, arr, board_size, msg.value, false, false, address(0), 0, false, address(0), 0, false, address(0), true);\r\n        valid_ids[id] = true;\r\n        if (board_size == 2) {\r\n            games[id].counter_ships = 2;\r\n            games[id].counter_ships_player = games[id].counter_ships;\r\n            games[id].counter_ships_creator = games[id].counter_ships;\r\n        } else if (board_size == 4) {\r\n            games[id].counter_ships = 7;\r\n            games[id].counter_ships_player = games[id].counter_ships;\r\n            games[id].counter_ships_creator = games[id].counter_ships;\r\n        } else if (board_size == 8) {\r\n            games[id].counter_ships = 23;\r\n            games[id].counter_ships_player = games[id].counter_ships;\r\n            games[id].counter_ships_creator = games[id].counter_ships;\r\n        }\r\n        emit NewGame(id, games[id].counter_ships, msg.sender);\r\n    }\r\n\r\n\r\n   /*\r\n        Phase 1.1:\r\n            - Valid gameId\r\n            - Only creator can delete him/her game\r\n            - No agreement with player\r\n\r\n            Vulnerabilities:\r\n\r\n            +All deposit is sent to the creator when he/she deletes a game.\r\n    */\r\n    function deleteGame(uint8 gameId) public{\r\n\r\n        require(valid_ids[gameId], \"Invalid game identifier\");\r\n        require(msg.sender == games[gameId].creator, \"Only creator can delete his/her game\");\r\n        require(games[gameId].agreement == false, \"There is an agreement with a player, you cannot delete this game.\");\r\n        \r\n        uint256 amount = games[gameId].deposit;\r\n        games[gameId].deposit = 0;\r\n        payable(msg.sender).transfer(amount);\r\n\r\n        deleteItem(gameIds, gameId);\r\n        delete(valid_ids[gameId]);\r\n\r\n        emit DeleteGame(gameId, msg.sender);\r\n    }\r\n\r\n\r\n    /*\r\n        Phase 2:\r\n            - Game empty from a player\r\n    */\r\n    function joinGameRandom() public{\r\n        require(gameIds.length > 0, \"There aren't already games.\");\r\n\r\n        uint8 rand_id;\r\n        bool find = false;\r\n\r\n\r\n        for(uint8 i = 0; i < gameIds.length; i++) {\r\n            if(games[gameIds[i]].free == true) {\r\n                rand_id = gameIds[i];\r\n                find = true;\r\n                break;\r\n            }\r\n        }\r\n\r\n        require(find, \"No available game at this moment\");\r\n        require(msg.sender != games[rand_id].creator, \"You are the creator of this game\");\r\n\r\n        games[rand_id].player = msg.sender;\r\n        games[rand_id].free = false;\r\n        emit SelectGame(\r\n            games[rand_id].gameId,\r\n            games[rand_id].counter_ships,\r\n            games[rand_id].board_size,\r\n            games[rand_id].deposit,\r\n            msg.sender    \r\n        );\r\n\r\n    }\r\n\r\n\r\n    /*\r\n        Phase 2:\r\n            - Available game\r\n            - An existing gameId\r\n            - You must be not the creator of the game\r\n\r\n            Vulnerabilities:\r\n    */\r\n    function joinGameId(uint8 gameId) public{\r\n\r\n        require(valid_ids[gameId], \"Invalid game identifier\");\r\n        require(games[gameId].free == true, \"There are already two players in this game\");\r\n        require(games[gameId].available == true, \"Game full, choose another game.\");\r\n        require(games[gameId].creator != msg.sender, \"You are the creator of the game\");\r\n\r\n        games[gameId].player = msg.sender;\r\n        games[gameId].free = false;\r\n\r\n        emit SelectGame(\r\n                games[gameId].gameId,\r\n                games[gameId].counter_ships,\r\n                games[gameId].board_size,\r\n                games[gameId].deposit,\r\n                msg.sender\r\n            );\r\n    }\r\n\r\n    /*\r\n        Phase 2.1:\r\n            - Valid gameId\r\n            - Only player of this game can propose a deposit\r\n            - No zero value\r\n            - No same value of deposit as before\r\n            - No previous agreement for deposit\r\n\r\n            Vulnerabilities\r\n    */\r\n    function proposeDeposit(uint8 gameId, uint256 new_deposit) public{\r\n\r\n        require(valid_ids[gameId], \"Invalid game identifier\");\r\n        require(msg.sender == games[gameId].player, \"You are not a player in this game\");\r\n        require(new_deposit != 0, \"Select a positive amount of ETHs for deposit\");\r\n        require(new_deposit != games[gameId].deposit, \"Choose a different amount of ETHs for deposit than before\");\r\n        require(games[gameId].agreement == false, \"Creator has already accepted a propose\");\r\n        \r\n        games[gameId].proposedDeposit = new_deposit;\r\n        \r\n        emit  ProposedDeposit(\r\n                gameId,\r\n                games[gameId].deposit,\r\n                games[gameId].proposedDeposit,\r\n                msg.sender\r\n            );\r\n    }\r\n\r\n\r\n    /*\r\n        Phase 2.2:\r\n            - Valid gameId\r\n            - Only player of this game can propose a deposit\r\n            - No zero value\r\n            - No same value of deposit as before\r\n            - No previous agreement for deposit\r\n\r\n            Vulnerabilities\r\n    */\r\n    function changeDeposit(uint8 gameId) public payable{\r\n\r\n        require(valid_ids[gameId], \"Invalid game identifier\");\r\n        require(msg.sender == games[gameId].creator, \"Only the game creator can change deposit\");\r\n\r\n        if(games[gameId].proposedDeposit > games[gameId].deposit) {\r\n            require(msg.value == (games[gameId].proposedDeposit - games[gameId].deposit), \"The new deposit summed to the previous is not equal to the proposed one.\");\r\n\r\n            games[gameId].deposit += msg.value;\r\n        } else {\r\n            require(msg.value == 0, \"Error with propose higher than deposit\");\r\n\r\n            uint256 diff = games[gameId].deposit - games[gameId].proposedDeposit;\r\n            games[gameId].deposit = games[gameId].proposedDeposit;\r\n            payable(msg.sender).transfer(diff);\r\n        }\r\n        games[gameId].agreement = true;\r\n\r\n        emit ChangeDeposit(\r\n            gameId,\r\n            games[gameId].deposit,\r\n            msg.sender\r\n        );\r\n    }\r\n\r\n\r\n    /*\r\n        Phase 3:\r\n            - Valid gameId\r\n            - Only player can pay to start the game\r\n            - Eths in transaction must be equal to the deposit\r\n            - No previous agreement \r\n\r\n            Vulnerabilities\r\n    */\r\n    function payDeposit(uint8 gameId) public payable{\r\n\r\n        require(valid_ids[gameId], \"Invalid game identifier\");\r\n        require(msg.sender == games[gameId].player, \"You are not player of this game\");\r\n        require(msg.value == games[gameId].deposit, \"Wrong ETHs to join game\");\r\n        require(games[gameId].available == true, \"You have already pay deposit\");\r\n\r\n        games[gameId].agreement = true;\r\n        games[gameId].deposit += msg.value;\r\n        games[gameId].available = false;\r\n\r\n        emit PaidDeposit(\r\n            gameId,\r\n            games[gameId].available,\r\n            msg.sender\r\n        );\r\n    }\r\n\r\n\r\n    /*\r\n        Phase 4:\r\n            - Valid gameId\r\n            - Only players of game can submit merkleRoot\r\n            - No previous merkleRoot stored \r\n            - 0 value for merkle root is not accepted\r\n\r\n            Vulnerabilities\r\n    */\r\n    function submitMerkleRoot(uint8 gameId, bytes32 merkle_root) public{\r\n\r\n        require(valid_ids[gameId], \"Invalid game identifier\");\r\n        require(merkle_root != 0, \"Invalid merkle root\");\r\n\r\n        if (msg.sender == games[gameId].creator) {\r\n            require(games[gameId].merkle_root_creator == 0, \"Merkle Root of creator already stored\");\r\n            games[gameId].merkle_root_creator = merkle_root;\r\n        } else if(msg.sender == games[gameId].player){\r\n            require(games[gameId].merkle_root_player == 0, \"Merkle Root of player already stored\");\r\n            games[gameId].merkle_root_player = merkle_root;\r\n            games[gameId].target_address = games[gameId].creator;\r\n        } else {\r\n            revert(\"You are not creator or player of this game\");\r\n        }\r\n\r\n        emit SubmitMerkleRoot(gameId, merkle_root, games[gameId].creator);\r\n    }\r\n\r\n\r\n    /*\r\n        Phase 5:\r\n            - Valid gameId\r\n            - Only players of game can shot\r\n            - Ony one shot per turn\r\n            - Target address must be submitted\r\n            - Game must be not ended\r\n            - No cheater\r\n\r\n            Vulnerabilities\r\n\r\n            + Creator cannot shot until player has submitted the merkle root, and\r\n            player can't shot first!!\r\n\r\n    */\r\n    function shotTorpedo(uint8 gameId,  uint8 col, uint8 row) public{\r\n\r\n        require(valid_ids[gameId], \"Invalid game identifier\");\r\n        require(games[gameId].target_address != address(0), \"Player has not submitted merkle root. Wait\");\r\n        require(games[gameId].target_address == msg.sender, \"You can't shot two consecutive times\");\r\n        require(games[gameId].end_game == false, \"End Game\");\r\n        require(games[gameId].cheat == false, \"Game ended, someone is a cheater\");\r\n\r\n        if (msg.sender == games[gameId].creator) {\r\n            games[gameId].target_address = games[gameId].player;\r\n        } else if (msg.sender == games[gameId].player){\r\n            games[gameId].target_address = games[gameId].creator;\r\n        } else {\r\n            revert(\"You are not creator or player of this game\");\r\n        }\r\n\r\n        emit ShotTorpedo(\r\n            gameId,\r\n            games[gameId].target_address,\r\n            col,\r\n            row,\r\n            msg.sender\r\n        );\r\n    }\r\n\r\n\r\n\r\n    /*\r\n        Phase 5.1:\r\n            - Valid gameId\r\n            - Only players of game can check \r\n            - Game must be not ended\r\n            - No cheater in the game\r\n\r\n            Vulnerabilities\r\n\r\n    */\r\n    function shotResult(uint8 gameId, uint8 col, uint8 row, bool result, bytes32 computed_hash, bytes32[] memory merkle_proof) public payable{\r\n\r\n        require(valid_ids[gameId], \"Invalid game identifier\");\r\n        require(games[gameId].end_game == false, \"End Game\");\r\n        require(games[gameId].cheat == false, \"Game ended, someone is a cheater\");\r\n\r\n        uint8 target_index = row * games[gameId].board_size + col;\r\n        address shooter_address;\r\n\r\n        if (msg.sender == games[gameId].creator) { \r\n            shooter_address = games[gameId].player;\r\n\r\n            for (uint8 i = 0; i < merkle_proof.length; i++) {\r\n\r\n                if (target_index % 2 == 0) {\r\n                    // Hash(current computed hash + current element of the proof)\r\n                    computed_hash = keccak256(abi.encodePacked(computed_hash, merkle_proof[i]));\r\n                } else {\r\n                    // Hash(current element of the proof + current computed hash)\r\n                    computed_hash = keccak256(abi.encodePacked(merkle_proof[i], computed_hash));\r\n                }\r\n                target_index = target_index / 2;\r\n        \r\n            }\r\n\r\n            if(computed_hash == games[gameId].merkle_root_creator) {\r\n\r\n                if(result) {\r\n                    games[gameId].counter_ships_creator -= 1;\r\n                    games[gameId].creator_board[row * games[gameId].board_size + col] = 1;\r\n                }\r\n            } else {\r\n                games[gameId].cheat = true;\r\n                games[gameId].end_game = true;\r\n                endGameCheater(gameId, shooter_address);\r\n            }\r\n\r\n            if(games[gameId].counter_ships_creator == 0) {\r\n\r\n                games[gameId].end_game = true;\r\n            }\r\n\r\n        } else if (msg.sender == games[gameId].player){\r\n            shooter_address = games[gameId].creator;\r\n\r\n\r\n            for (uint8 i = 0; i < merkle_proof.length; i++) {\r\n\r\n                if (target_index % 2 == 0) {\r\n                    // Hash(current computed hash + current element of the proof)\r\n                    computed_hash = keccak256(abi.encodePacked(computed_hash, merkle_proof[i]));\r\n                } else {\r\n                    // Hash(current element of the proof + current computed hash)\r\n                    computed_hash = keccak256(abi.encodePacked(merkle_proof[i], computed_hash));\r\n                }\r\n                target_index = target_index/2;\r\n            }\r\n            \r\n            if(computed_hash == games[gameId].merkle_root_player) {\r\n                if(result) {\r\n                    games[gameId].counter_ships_player -= 1;\r\n                    games[gameId].player_board[row * games[gameId].board_size + col] = 1;\r\n                }\r\n            } else {\r\n                games[gameId].cheat = true;\r\n                games[gameId].end_game = true;\r\n                endGameCheater(gameId, shooter_address);\r\n            }\r\n            if(games[gameId].counter_ships_player == 0) {\r\n\r\n                games[gameId].end_game = true;\r\n            }\r\n           \r\n        } else {\r\n            revert(\"You are not creator or player of this game\");\r\n        }\r\n\r\n        emit ShotResult(gameId, result, col, row, games[gameId].end_game, games[gameId].cheat, msg.sender, shooter_address);\r\n    }\r\n\r\n\r\n\r\n    /*\r\n        Phase 6:\r\n            - Valid gameId\r\n            - Only players of game can accuse\r\n            - No other accused player\r\n\r\n            Vulnerabilities\r\n\r\n    */\r\n    function submitAccuse(uint8 gameId) public{\r\n\r\n        require(valid_ids[gameId], \"Invalid game identifier\");\r\n        require(games[gameId].accused == address(0), \"Accuse already submitted\");\r\n\r\n        if (msg.sender == games[gameId].creator) {\r\n           games[gameId].accused = games[gameId].player;\r\n        } else if (msg.sender == games[gameId].player){\r\n            games[gameId].accused = games[gameId].creator;\r\n        } else {\r\n            revert(\"You are not creator or player of this game\");\r\n        }\r\n\r\n        games[gameId].acc_time = block.number + 5;\r\n\r\n        emit SubmitAccuse(\r\n            gameId,\r\n            games[gameId].accused,\r\n            games[gameId].acc_time,\r\n            msg.sender\r\n        );\r\n\r\n    }\r\n\r\n    /*\r\n        Phase 6.1:\r\n            - Valid gameId\r\n            - Only players of game can check accuse\r\n            - There must be one accuse\r\n\r\n            Vulnerabilities\r\n\r\n    */\r\n    function verifyAccuse(uint8 gameId) public payable{\r\n\r\n        require(valid_ids[gameId], \"Invalid game identifier\");\r\n        require(games[gameId].accused != address(0), \"Accuse was not submitted\");\r\n\r\n        if (msg.sender != games[gameId].creator && msg.sender != games[gameId].player) {\r\n            revert(\"You are not creator or player of this game\");\r\n        }\r\n        if(games[gameId].acc_time <= block.number) {\r\n            \r\n            payable(msg.sender).transfer(games[gameId].deposit);\r\n            games[gameId].accuse = true;\r\n        }\r\n        emit VerifyAccuse(gameId, games[gameId].accuse, msg.sender);    \r\n    }\r\n\r\n\r\n    /*\r\n        Phase 6.2:\r\n            - Valid gameId\r\n            - Only players of game can check accuse\r\n            - There must be one accuse\r\n            - Address of accused must be equal to msg.sender\r\n\r\n            Vulnerabilities\r\n\r\n    */\r\n    function removeAccuse(uint8 gameId) public{\r\n        require(valid_ids[gameId], \"Invalid game identifier\");\r\n        require(games[gameId].accused != address(0), \"Accuse was not submitted\");\r\n        require(games[gameId].accused == msg.sender, \"You are not accused\");\r\n\r\n        if (msg.sender != games[gameId].creator && msg.sender != games[gameId].player) {\r\n            revert(\"You are not creator or player of this game\");\r\n        }\r\n\r\n        games[gameId].accused = address(0);\r\n        emit RemoveAccuse(gameId, msg.sender);\r\n        \r\n    }\r\n\r\n\r\n    /*\r\n        Phase 7:\r\n            - Valid gameId\r\n            - Only players of game can verify the end of game\r\n            - Game must be finished\r\n            - No previous cheaters in the game\r\n\r\n            Vulnerabilities\r\n\r\n    */\r\n    function verifyEndGame(uint8 gameId, uint256[] memory indexes, uint256[] memory values, uint256[] memory seeds, bytes32[] memory merkle_proofs) public{\r\n\r\n        require(valid_ids[gameId], \"Invalid game identifier\");\r\n        require(games[gameId].end_game == true, \"Game isn't finished\");\r\n        require(games[gameId].cheat == false, \"Someone is a cheater\");\r\n\r\n        bytes32 merkle_root_ver;\r\n        address opposer;\r\n        bytes32 computed_hash;\r\n        uint8 size_merkle_proof;\r\n\r\n        if(msg.sender == games[gameId].creator) {\r\n            opposer = games[gameId].player;\r\n            merkle_root_ver = games[gameId].merkle_root_creator;\r\n        } else if(msg.sender == games[gameId].player) {\r\n            opposer = games[gameId].creator;\r\n            merkle_root_ver = games[gameId].merkle_root_player;\r\n        } else {\r\n            revert(\"You are not creator or player of this game\");\r\n        }\r\n\r\n        if(games[gameId].board_size == 2) {\r\n            size_merkle_proof = 2;\r\n        } else if (games[gameId].board_size == 4) {\r\n            size_merkle_proof = 4;\r\n        } else {\r\n            size_merkle_proof = 6;\r\n        }\r\n\r\n        for(uint8 j = 0; j < values.length; j++) {\r\n\r\n            uint256 tmp = values[j] + seeds[j];\r\n            computed_hash = keccak256(abi.encode(tmp));\r\n\r\n            for(uint8 i = j*size_merkle_proof; i < (j+1)*size_merkle_proof; i++) {\r\n                \r\n                if (indexes[j] % 2 == 0) {\r\n                    // Hash(current computed hash + current element of the proof)\r\n                    computed_hash = keccak256(abi.encodePacked(computed_hash, merkle_proofs[i]));\r\n                } else {\r\n                    // Hash(current element of the proof + current computed hash)\r\n                    computed_hash = keccak256(abi.encodePacked(merkle_proofs[i], computed_hash));\r\n                }\r\n                indexes[j] = indexes[j] / 2;\r\n            }\r\n\r\n            if(computed_hash != merkle_root_ver) {\r\n                games[gameId].cheat = true;\r\n                games[gameId].winner = opposer;\r\n            }\r\n        }\r\n\r\n        if(values.length != games[gameId].counter_ships) {\r\n            games[gameId].cheat = true;\r\n            games[gameId].winner = opposer;\r\n        }\r\n        \r\n        games[gameId].winner = msg.sender;\r\n        emit ValidCheck(gameId, msg.sender, games[gameId].cheat, opposer);\r\n    }\r\n\r\n\r\n    /*\r\n        Phase 8.1:\r\n            - Valid gameId\r\n            - Only players of game can make the final transaction\r\n            - There must be a cheter\r\n            - Game must be not ended\r\n\r\n            Vulnerabilities\r\n    */\r\n    function endGameCheater(uint8 gameId, address shooter) public payable{\r\n\r\n        require(valid_ids[gameId], \"Invalid game identifier\");\r\n        require(games[gameId].cheat == true, \"No cheater in game\");\r\n        require(games[gameId].end_game == true, \"Game is not ended\");\r\n\r\n        if (msg.sender != games[gameId].creator && msg.sender != games[gameId].player) {\r\n            revert(\"You are not creator or player of this game\");\r\n        }\r\n\r\n        games[gameId].winner = shooter;\r\n        uint256 amount = games[gameId].deposit;\r\n        games[gameId].deposit = 0;\r\n\r\n        payable(shooter).transfer(amount);\r\n\r\n        endGame(gameId);\r\n\r\n    }\r\n\r\n\r\n    /*\r\n        Phase 8.2:\r\n            - Valid gameId\r\n            - Only players of game can make final transaction\r\n            - Game must be ended\r\n            - No cheater\r\n\r\n            Vulnerabilities\r\n    */\r\n    function transactionEndGame(uint8 gameId, address receiver) public payable{\r\n        \r\n        require(valid_ids[gameId], \"Invalid game identifier\");\r\n        require(games[gameId].cheat == false, \"There is a cheater in the game\");\r\n        require(games[gameId].end_game == true, \"Game is not ended\");\r\n\r\n        if (msg.sender != games[gameId].creator && msg.sender != games[gameId].player) {\r\n            revert(\"You are not creator or player of this game\");\r\n        }\r\n        games[gameId].winner = receiver;\r\n\r\n        uint256 amount = games[gameId].deposit;\r\n\r\n        games[gameId].deposit = 0;\r\n\r\n        payable(games[gameId].creator).transfer(amount/2);\r\n        payable(games[gameId].player).transfer(amount/2);\r\n\r\n        endGame(gameId);\r\n    }\r\n\r\n\r\n\r\n    /*\r\n        Phase 8.3:\r\n            - Valid gameId\r\n            - There must be a winner\r\n            - Deposit must be setted to 0.\r\n\r\n            Vulnerabilities\r\n    */\r\n    function endGame(uint8 gameId) private{\r\n\r\n        require(valid_ids[gameId], \"Invalid game identifier\");\r\n        require(games[gameId].winner != address(0), \"No winner for this game\");\r\n        require(games[gameId].deposit == 0, \"Deposit wasn't at 0.\");\r\n        \r\n\r\n        deleteItem(gameIds, gameId);\r\n        delete(valid_ids[gameId]);\r\n    }\r\n\r\n    function deleteItem(uint8[] storage arr, uint8 item) private{\r\n        \r\n        uint8 index;\r\n        \r\n         for(uint8 i = 0; i < arr.length - 1; i++) {\r\n            if(item == arr[i]) {\r\n                index = i;\r\n            }\r\n        }\r\n\r\n        for (uint i = index; i < arr.length - 1; i++) {\r\n            arr[i] = arr[i + 1];\r\n        }\r\n\r\n        arr.pop();\r\n    }\r\n}",
  "sourcePath": "C:\\Users\\andre\\OneDrive - University of Pisa\\Peer to Peer & Blockchain\\solidity_project\\BattleShip\\contracts\\BattleShip.sol",
  "compiler": {
    "name": "solc",
    "version": "0.8.13+commit.abaa5c0e.Emscripten.clang"
  },
  "schemaVersion": "3.4.16",
  "updatedAt": "2023-10-11T16:10:36.329Z",
  "networkType": "ethereum",
  "devdoc": {
    "kind": "dev",
    "methods": {},
    "version": 1
  },
  "userdoc": {
    "kind": "user",
    "methods": {},
    "version": 1
  }
}